:020000040800F2
:10400000785D00205D420008098D00080D7B0008E6
:10401000A18A0008AD4E00080195000800000000CC
:104020000000000000000000000000009D410008AA
:104030007950000800000000F94100088D90000848
:10404000774200087742000877420008774200086C
:10405000774200087742000877420008774200085C
:10406000774200087742000877420008774200084C
:10407000774200087742000877420008774200083C
:10408000774200087742000877420008D54E0008C2
:10409000B14E0008BD4E0008C94E00087742000826
:1040A000774200087742000877420008774200080C
:1040B00077420008774200087742000877420008FC
:1040C00077420008774200087742000877420008EC
:1040D00077420008D9940008774200087742000828
:1040E00077420008774200087742000877420008CC
:1040F000774200085D910008774200087742000887
:1041000077420008774200087742000877420008AB
:10411000774200087742000877420008774200089B
:10412000774200087742000877420008774200088B
:10413000774200087742000877420008054F0008E0
:10414000E14E0008ED4E0008F94E000877420008E5
:10415000774200087742000877420008774200085B
:10416000774200087742000877420008774200084B
:1041700077420008774200087742000800000000FC
:104180007742000877420008DFF80CD000F08CF985
:1041900000480047099A0008785D00202C4B1968F8
:1041A0000868B0E8F04F80F30988BFF36F8F4FF0D5
:1041B000000080F311887047000000000848006884
:1041C000006880F308884FF0000080F3148862B61E
:1041D00061B6BFF34F8FBFF36F8F00DF00BF00BF2B
:1041E00008ED00E0DFF80C00016841F470010160A7
:1041F000704700BF88ED00E0EFF30980BFF36F8FD9
:10420000134B1A681EF0100F08BF20ED108A20E92A
:10421000F04F106009B44FF0500080F31188BFF3E5
:104220004F8FBFF36F8F06F065FF4FF0000080F3F4
:10423000118809BC19680868B0E8F04F1EF0100F2B
:1042400008BFB0EC108A80F30988BFF36F8F704706
:104250003C000020EFF305807047000006488047CF
:1042600006480047FEE7FEE7FEE7FEE7FEE7FEE75B
:10427000FEE7FEE7FEE7FEE74191000889410008FE
:104280002DE9F05F0546002092469B46884606468B
:10429000814640241BE0284641464746224600F01E
:1042A00096F853465A46C01A914110D31146184603
:1042B000224600F07DF82D1A67EB01084F46224692
:1042C0000120002100F074F817EB00094E41201E78
:1042D000A4F10104DFDC484631462A464346BDE8E6
:1042E000F09F40EA01039B0703D009E008C9121FB1
:1042F00008C0042AFAD203E011F8013B00F8013BA0
:10430000521EF9D27047D2B201E000F8012B491ECB
:10431000FBD270470022F6E710B513460A46044662
:104320001946FFF7F0FF204610BD421C10F8011B94
:104330000029FBD1801A70470EB540F2334102913B
:104340000021CDE900110A460B4600F05FF803B0EA
:1043500000BD000030B5041E71F1000404DB4FF015
:104360000044404264EB0101141E73F1000405DBBC
:104370001C464FF00043524263EB04038B4208BFDC
:10438000824230BD30B50B46014600202022012478
:1043900009E021FA02F59D4205D303FA02F5491B13
:1043A00004FA02F52844151EA2F10102F1DC30BD29
:1043B000202A04DB203A00FA02F1002070479140E5
:1043C000C2F1200320FA03F3194390407047202ADA
:1043D00004DB203A21FA02F00021704721FA02F3AF
:1043E000D040C2F12002914008431946704710B5F1
:1043F000141E73F1000408DA401C41F10001921808
:104400005B411A4301D120F0010010BD2DE9F04DB0
:1044100092469B4611B1B1FA81F202E0B0FA80F205
:1044200020329046FFF7C4FF04460F4640EA0A00D8
:1044300041EA0B0153465A46084313D0114653EA4A
:10444000010019D0C8F140025046FFF7C0FF0546F1
:104450000E46504659464246FFF7AAFF084305D08C
:10446000012004E020463946BDE8F08D00200543D8
:1044700046EAE0762C4337430A986305E40AA0EB4A
:1044800008000022FD0A44EA47540A3002D5002001
:104490000146E9E7010510196941DDE90845001900
:1044A0006941BDE8F04DA2E7064C074D06E0E06823
:1044B00040F0010394E8070098471034AC42F6D36B
:1044C000FFF766FE84C20008A4C20008464910B582
:1044D0004A6822F440324A604A6843681A434A6094
:1044E00001684A6822F480724A6001684A68036978
:1044F00042EA03224A6001684A6822F040724A6038
:1045000001684A6883681A434A6001688A6822F42D
:1045100000628A6001688A68C3681A438A60816A97
:104520006FF07062D14201688A6822F070628A601E
:1045300001688A680CD0836A1A438A6001688A68B5
:1045400022F040528A6001688A68C36A1A4301E017
:1045500022F040528A6001688A6822F002028A6072
:1045600001688A68037E42EA43028A6090F820105C
:10457000002901684A680FD042F400624A6001686D
:104580004A6822F460424A6001684A68174C436AEC
:1045900004EB43331A4301E022F400624A600168ED
:1045A000CA6A22F47002CA620168CA6A838B104C1C
:1045B00004EB03531A43CA6201688A6822F400724A
:1045C0008A6001688A6890F8303042EA43228A6043
:1045D00001688A6822F480628A6001688A6840699A
:1045E00042EA8020886010BD0023014000E0FFFF08
:1045F0000000F0FF30B585B0AA208DF80C00002037
:104600008DF8100032230822A0211C4801F028FD5B
:1046100008B11BA02DE0012503A8CDE90005642405
:1046200010230022A0210294144801F0D1FE08B109
:104630001DA01EE005232822A021104801F010FD36
:1046400008B11EA015E004A8CDE900051023002242
:10465000A0210294094801F0B9FD08B11EA008E0AC
:104660009DF810009DF80C10884201D11FA000E0B9
:1046700021A004F037FF05B030BD0000AC010020E0
:1046800041543234204E41434B2028636865636BAC
:104690002057502F4132413141302F70756C6C756D
:1046A00070290D0A000000004154323420777269ED
:1046B0007465206661696C0D0A0000004154323453
:1046C000207772697465206379636C652074696D05
:1046D000656F75740D0A00004154323420726561B3
:1046E00064206661696C0D0A000000004154323498
:1046F000204F4B0D0A00000041543234204E4F54DD
:10470000204F4B0D0A000000054800210170417048
:10471000817041608160C160016141618161704768
:10472000C000002038B501F0D1FB04461D480090C0
:104730001D4B0A221D49204606F0CAF91C481B4998
:1047400000901C4B6422091D204606F0C1F91A484E
:1047500016490090194BFA220831204606F0B8F9A4
:10476000174812494FF4FA750090164B2A460C313F
:10477000204606F0ADF914480C490090134B2A4628
:104780001031204606F0A4F9114808490090114B59
:104790006A001431204606F09BF9BDE8384006F067
:1047A0002DB90000BD9D0008F3406018C400002032
:1047B000819E0008F3406418599E0008F340611878
:1047C0001D9E0008F3406218B59E0008F340631870
:1047D000B39D0008F340651870B50D4606460024E9
:1047E00010E0062006F0B8FC00231A4631460220ED
:1047F00003F026FC142000F0B9F808B1012070BDC8
:10480000641CE4B2AC42ECD3002070BD002205E091
:10481000835C0BB101207047521C92B28A42F7D3DD
:10482000002070470022134604E000BF20F8123039
:10483000521C92B28A42F9D37047000070B5044608
:10484000002500F057F800F0C1F840B100210846FB
:104850006054491C89B27229FAD3012070BD0D48F9
:10486000002202EB8213002100EB83035E18491C37
:1048700096F8E86066556D1CC9B2ADB21329F5D340
:10488000521CD2B2062AECD32046BDE870407221F9
:10489000FFF7BCBFB44C002070B50446002500F003
:1048A00029F800F0B3F940B1002108466054491CD2
:1048B00089B23629FAD3012070BD0D48002202EBDF
:1048C0008213002100EB83035E18491C96F8FB60FD
:1048D00066556D1CC9B2ADB20929F5D3521CD2B2CE
:1048E000062AECD32046BDE870403621FFF78EBF84
:1048F000B44C002010B5114C207800281CD1104970
:10490000062003F0BBFB0E49062003F0A1FB0C4977
:10491000062003F09FFB0A4900204FF6FF7200BFFC
:1049200000EB801301EB8303401CC0B2C3F8E4200A
:104930000628F5D30120207010BD0000BC00002027
:10494000B44C002070B508B1012400E00024064DED
:1049500022464021284601F0B3FA22462846BDE807
:104960007040802101F0ACBA0000024038B5054625
:1049700007208DF8000014208DF801006946022000
:1049800005F00CFB010A8DF802108DF803000A20D7
:1049900004F0E6FF6946042006F0ACF804F0BAFF24
:1049A0004FEA000404F0B6FF001BA84204D90A2015
:1049B00004F0CEFF012038BDFF2006F098F8002853
:1049C000F0D00A2004F0C4FF002038BD2DE9F04FDC
:1049D0008C4C85B000254FF6FF7700BF05EB8510A6
:1049E00004EB800606F1E8001321FFF793FC6D1C31
:1049F000EDB2C6F8E470062DF0D3062006F0BDFB3C
:104A000003F024FB05210120FFF7E6FE20BB062072
:104A100006F0A2FB7B4A0621002003F04CFB7A4DF6
:104A2000002101EBC10205EB820301EB81120020A2
:104A300004EB820202EB4006F68B23F81060401C68
:104A4000C0B21228F6D3491CC9B20629E9D3052100
:104A50000020FFF7C1FE18B1012005B0BDE8F08FBE
:104A6000062006F079FB674A0621002003F023FBAD
:104A7000654A0021D83201EBC10302EB830601EB4A
:104A80008113002004EB830303EB4007FF8B26F820
:104A90001070401CC0B21228F6D3491CC9B20629B6
:104AA000E9D30026AE4693466B46A24606EB861433
:104AB0000AEB84094FF6FF7206EBC6070020C9F81F
:104AC000E42001460EEB87050BEB870235F81180D9
:104AD00032F811C0C44530D2A8EB0C0C1FFA8CFC84
:104AE000BCF57A6F29D901F1010C03F800C0401C14
:104AF00040B24FFA81FC10E005EB4C08B8F8048096
:104B0000B8F1000F05D10CF1020803F80080401C39
:104B100040B20CF1010C4FFA8CFCBCF10F0FEBDB37
:104B20000E290AD1B2F81EC0BCF1000F05D14FF01A
:104B3000100C03F800C0401C40B2491CC9B2122935
:104B4000C4D33BF8271019B900211954401C40B2B6
:104B5000518C19B912211954401C40B2118C19B949
:104B600011211954401C40B2002218E0511C49B2D6
:104B70000D4611E09C565F56BC420BD10C4604E03A
:104B80001F197F781F55641C64B28442F8DB401EF5
:104B900040B201E0491C49B28142EBDB2A46824225
:104BA000E4DB0022411E4DB20FE003EB010C5C562A
:104BB0009CF90170BC4202DD5F548CF80140491C35
:104BC00049B2A942F1DB521C52B282424FF00001BD
:104BD000F7DB012407E05A56132A02D24A4482F82E
:104BE000E840491C49B28142F5DB002803DD9DF90C
:104BF0000010C9F8E410761CF6B2062EFFF456AF8A
:104C000000202AE7B44C0020CC5200202DE9F047C8
:104C10000020674C02464FF6FF7500BF00EB801185
:104C200004EB8101401C41F8FB2FC0B24A600A72BC
:104C300041F8175C0628F1D3062006F09EFA03F02F
:104C400003FA0026062006F087FA0021022003F06E
:104C5000F3F91420FFF78AFED0BB761CF6B2032EC0
:104C6000F0D3062006F078FA514A0621002003F01E
:104C700020FA00210846DFF83C8103E0002001E033
:104C800009280CD201EB811204EB820202EB4002F4
:104C9000B2F8483001EB810208EB820200E0002309
:104CA00022F81030401CC0B20A28E9D3491CC9B20E
:104CB0000629E3D303F0C8F90026062006F04CFAD3
:104CC0000021022003F0BEF91420FFF74FFE10B1BF
:104CD0000120BDE8F087761CF6B2032EEDD3062046
:104CE00006F03AFA324A0621002003F0E2F90021E8
:104CF000304A0846783203E0002001E009280CD24F
:104D000001EB811304EB830303EB4003B3F848602A
:104D100001EB810302EB830300E0002623F810601F
:104D2000401CC0B20A28E9D3491CC9B20629E3D302
:104D30000021A9464FF0010A01EB811304EB830324
:104D400001EB810508EB8506002002EB8505C3F821
:104D5000E49000BF35F810C036F81070BC4503D998
:104D6000ACEB0707BFB200E00027052809D2962F59
:104D700013D9471C03EB000CC3F8E4708CF8FBA0BC
:104D80000BE00AD9962F08D9471EFFB2C3F8E400FA
:104D9000092F02D21F4487F8FBA0401CC0B20A288A
:104DA000D8D3491CC9B20629C6D3002091E7000018
:104DB000B44C00207C5400202DE9F041054600242D
:104DC000FFF798FD062006F0D8F9002211460220D0
:104DD00003F034F91420FFF7C9FD20B16C212846F7
:104DE000FFF720FD1FE0062006F0B6F90F4A062166
:104DF000002003F060F90D4B002202EB8216002127
:104E000003EB860606EB4107491CFF8B25F814705F
:104E1000641CC9B2A4B21229F4D3521CD2B2062A1D
:104E2000EBD3002800D00120BDE8F081B44C002075
:104E30002DE9F04105460024FFF75CFD062006F051
:104E40009CF90021022003F0F7F81420FFF78EFDF3
:104E500020B136212846FFF7E5FC21E0062006F0C8
:104E60007BF9114A0621002003F023F90E4B0022A2
:104E700002EB8216002103EB860600BF06EB41071A
:104E8000491CB7F8487025F81470641CC9B2A4B264
:104E90000929F3D3521CD2B2062AE9D3002800D044
:104EA0000120BDE8F0810000B44C0020FEE70000C6
:104EB000014800F0A2BB00002C010020014800F0D6
:104EC0009CBB00002C010020014800F096BB0000B4
:104ED0002C010020014800F090BB00002C010020B4
:104EE000014800F08ABB000054010020014800F096
:104EF00084BB000054010020014800F07EBB00008C
:104F000054010020014800F078BB0000540100204B
:104F100030B58BB00C46054628216846FFF7FAF9F4
:104F2000002101220091CDE90414CDE9061203917C
:104F30000E20CDE90820019102916946284600F033
:104F400033FA002801D000F098F80BB030BD000013
:104F50000A490978002910D000680949884203D11C
:104F60000849A1F1500006E00749884205D10549EA
:104F70001831A1F1400000F009B87047100000207E
:104F8000006400407C01002000680040F0B589B05A
:104F90000C46074618216846FFF7BCF9207C2568B7
:104FA0008DF8180000268DF81960280E8DF81A006B
:104FB000280C8DF81B00280A8DF81C008DF81D5058
:104FC00019493868884201D1C12000E0C2208DF81B
:104FD0001E0085F0A5008DF81F00384600F0F7FA96
:104FE000A8B102966069CDE900060820CDE903600A
:104FF0008DF8146008AB06AA6946384600F075F9CA
:1050000038B1E068401CE060012009B0F0BD02202A
:10501000FBE76D1C2560A068401CA06000F056FFF7
:1050200060600020F1E700000064004010B500213E
:105030001048FFF76DFF0F480E212830FFF768FF7B
:105040000C4800F069FD08B100F017F80948283055
:1050500000F062FD08B100F010F806480221283087
:1050600000F031F9002803D0BDE8104000F005B889
:1050700010BD00002C010020704772B6FEE770479B
:1050800078B50024009490F83C20012A19D0012220
:1050900080F83C200A6807230568092A13D9EE68BE
:1050A0000A3A02EB420293409E43EE600B788A6814
:1050B0000A3B03EB43039A400368DD682A43DA6046
:1050C00010E0022078BD2E6902EB420293409E431D
:1050D0002E610B788A6803EB43039A4003681D69CD
:1050E0002A431A614A681F23072A13D205686E6B88
:1050F000521E02EB820293409E436E630B790A8834
:105100005B1E92B203EB83039A4003685D6B2A43F4
:105110005A6327E005680D2A12D22E6BD21F02EBCC
:10512000820293409E432E630B790A88DB1F92B262
:1051300003EB83039A4003681D6B2A431A6311E053
:10514000EE6A0D3A02EB820293409E43EE620B79C7
:105150000A880D3B92B203EB83039A400368DD6A31
:105160002A43DA62164B0568144A9D4206D10D683F
:10517000122D03D1556845F48005556005689D42A0
:1051800018D10B68102B01D0112B13D1536843F4A5
:1051900000035360096810290CD10A490A4A0968BA
:1051A000B1FBF2F101EB8101490000E0491E0091E1
:1051B0000029FBD180F83C40002078BD002301404D
:1051C000002001403800002040420F0070B504006C
:1051D0004FF0000503D0206C002610B107E001203D
:1051E00070BD204600F01CF8666484F83C60206CBA
:1051F000C00610D4206C20F4885040F002002064D7
:105200002046FFF763F96664206C20F0020040F04E
:105210000100206400E0012584F83C60284670BD50
:1052200010B586B0044614216846FFF773F811499B
:10523000206888421CD110480021026842F4807224
:105240000260006800F4807005900B481438026812
:1052500042F001020260006800F0010005903F206A
:1052600000900320CDE901016946044800F030FDBB
:1052700006B010BD0020014044380240000002404A
:1052800090F82020012A07D0022A05D0416A41F473
:105290008021416201207047CA0704D002689368E8
:1052A00043F0800393608A0704D50268936843F44F
:1052B00000439360490704D50068816841F4000108
:1052C00081600020704790F82020012A07D0022A30
:1052D00005D0416A41F48021416201207047006895
:1052E00042690A43426100207047F0B590F82050AF
:1052F0000468A468012D05D0022D03D0416A41F451
:1053000080214DE014F0406F01D1E50045D5C4F394
:1053100001640125A5401D608D684FF4C0739DB1E7
:10532000CE6835434E6845EAC605066803EB0417A8
:10533000F5514FF4C275076805EB04150E697E51EF
:10534000097D012905D009E00E88CD6845EA46555A
:10535000EBE701684E5946F480764E511179D2F848
:1053600005504FF4C67641EA0521056806EB0416A0
:10537000A9511178D2F801204FF4C47541EA0221F5
:10538000026805EB04155151006803EB0411425803
:1053900042F0010242500020F0BD416A41F4001188
:1053A00041620120F0BD000010B590F82020012AD4
:1053B00007D0022A05D0416A41F4802141620120D0
:1053C00010BD3B48D0F8002242F00102C0F8002294
:1053D000D0F8002222F47C52C0F80022D0F800223B
:1053E0004B6A42EA0322C0F800220A7D02F01F0342
:1053F00001229A40D0F81C329343C0F81C32CB698A
:10540000B3B9D0F80C329343C0F80C328C894B6896
:1054100064F31F434C6900EBC404C4F840320C89A8
:105420000B6864F31F434C6900EBC404C4F84432B6
:10543000CB69012B16D1D0F80C321343C0F80C32D3
:105440000C884B6864F31F434C6900EBC404C4F838
:1054500040320C89CB6864F31F434C6900EBC404F1
:10546000C4F844328B69002BD0F804320ED01343B9
:10547000C0F804320B69002BD0F8143208D0134363
:10548000C0F81432096A012904D008E09343EFE719
:105490009343F5E7D0F81C121143C0F81C12D0F862
:1054A000001221F00101C0F80012002010BD000020
:1054B00000640040704700000246002092F820304F
:1054C000012B01D0022B05D1106821B1D0F81000BA
:1054D00000F003007047C068FAE770B590F820400C
:1054E000012C05D0022C03D0416A41F4802128E030
:1054F000046809B32469A40720D04FF4D874056860
:1055000004EB01142D5915F00405956005682D591B
:105510001AD0ED08556005682C5904F00204D460D7
:105520004FF4DA74056804EB01142E5906F00F06E7
:10553000082E0CD308250DE0E468DCE7416A41F44D
:1055400000114162012070BD6D0D1560E3E72D591A
:1055500005F00F05156105682D59C5F307259561FF
:1055600005682C59240C54614FF4DC72046802EB7A
:105570000112A4581C700468A458240A5C700468C2
:10558000A458240C9C700468A258120EDA704FF4D0
:10559000DE72046802EB0112A4581C710468A4585E
:1055A000240A5C710468A458240C9C710468A258F5
:1055B000120EDA71006829B1016941F02001016120
:1055C000002070BDC16841F02001C160F8E70246CB
:1055D000002092F82010012901D002290CD1116875
:1055E0008A68520100D501208A68120100D5401C4A
:1055F0008968C90000D5401C70472DE9F05F054659
:10560000006800244669D0F804908768D0F80CB090
:10561000D0F810A0D0F81880F10748D0F90714D0BE
:1056200001218160B80703D5284600F0D3FA0CE0C9
:10563000780702D54FF4006407E0380702D54FF42D
:10564000805402E0284600F0C3FAF80516D5296810
:105650004FF480708860B80503D5284600F0C6FA7C
:105660000CE0780502D544F4005407E0380502D573
:1056700044F4804402E0284600F0B6FAF80316D558
:1056800029684FF480308860B80303D5284600F0BD
:10569000B9FA0CE0780302D544F4004407E038037B
:1056A00002D544F4803402E0284600F0A9FA30071D
:1056B00007D55FEACB6004D52968102044F4007454
:1056C000C86070074FF0080707D55FEA0B7004D574
:1056D0002868C760284600F0CBF9B00706D52868CF
:1056E000C068800702D0284600F0C4F9700607D5CC
:1056F0005FEACA6004D52968102044F48064086118
:10570000B00607D55FEA0A7004D528680761284605
:1057100000F0FEF9F00606D528680069800702D07F
:10572000284600F0F6F9B00308D55FEAC96005D550
:10573000296810204860284600F0ECF9F00307D5EE
:105740005FEA097004D528684760284600F064FACB
:10575000300446D55FEA497040D5F00504D55FEACC
:10576000C87001D044F00104B00504D55FEA887028
:1057700001D544F00204700504D55FEA487001D5F4
:1057800044F00404300529D518F0700F26D008F035
:105790007000402815D006DC102809D020280AD037
:1057A000302816D10AE050280ED0602811D10EE022
:1057B00044F008040DE044F010040AE044F0200432
:1057C00007E044F0400404E044F0800401E044F4C5
:1057D00080742868816921F0700181612968042042
:1057E0004860002C05D0686A204368622846FFF7AD
:1057F00061FEBDE8F09F70B5040003D094F820006E
:1058000010B104E0012070BD204600F081F820684E
:10581000016841F00101016000F058FB05460526D2
:1058200004E000F053FB401B0A2811D820684068B0
:10583000C007F6D02068016821F00201016000F085
:1058400045FB05460BE000F041FB401B0A2806D94A
:10585000606A40F40030606284F82060D2E720681B
:1058600040688007EFD4207E0128206801683DD081
:1058700021F080010160607E01282068016838D035
:1058800021F040010160A07E01282068016833D02A
:1058900021F020010160E07E0128206801682ED0FF
:1058A00041F010010160207F01282068016829D0A3
:1058B00021F008010160607F01282068016824D080
:1058C00021F004010160D4E902010843D4E9041283
:1058D000114308436168491E08432168C8610020DC
:1058E0006062012084F82000002070BD41F080013A
:1058F000C0E741F04001C5E741F02001CAE721F0CF
:105900001001CFE741F00801D4E741F00401D9E7E5
:10591000F0B587B0044614216846FEF7FBFC4F4BF8
:105920004F48DFF834E15968D4F800C04C4A0225EA
:105930000326092710300024491CF4453CD1596046
:10594000012907D1016841F000710160006800F091
:1059500000700590106840F001001060106802AB04
:1059600000F0010005904FF4C050CDE9000583E838
:10597000D00069463B4800F0ABF900220521132016
:1059800000F0A0FE132000F08FFE0022052114205D
:1059900000F098FE142000F087FE0022052115205B
:1059A00000F090FE152000F07FFE00220521162059
:1059B00000F088FE16204BE0DFF8ACE0F44549D15A
:1059C000D0F800C04CF0806CC0F800C0D0F800C027
:1059D00001290CF0806CCDF814C0596007D1016822
:1059E00041F000710160006800F0007005901068DF
:1059F00040F002001060106802AB00F00200059059
:105A00004FF44050CDE9000583E8D00069461748BF
:105A100000F05EF9002205213F2000F053FE3F20F8
:105A200000F042FE00220521402000F04BFE402005
:105A300000F03AFE00220521412000F043FE412003
:105A400000F032FE00220521422000F03BFE422001
:105A500000F02AFE07B0F0BD0064004010000020F6
:105A6000303802400000024000680040000402405C
:105A70007047000030B504460068204989B088426C
:105A800032D06B4602AA00212046FFF726FD09B05E
:105A900030BD6B4602AA00212046FFF71EFD0028FC
:105AA000F5D10498F0B103990698A942C0B21DD16E
:105AB000E0B19DF80000401E062817D81149104893
:105AC0000860BFF34F8FBFF36F8FBFF34F8F0E4848
:105AD00001680E4A01F4E06111430160BFF34F8F8A
:105AE00000BFFDE70299DFE74FF4E06500212046A3
:105AF000FFF7E2FC0028CCD1C9E7000000680040B5
:105B0000AD1007B0F0BF01200CED00E00400FA0575
:105B1000704770477047000070B5044690F8200049
:105B2000012804D0606A40F40020606218E002207E
:105B300084F820002068016821F00101016000F074
:105B4000C5F905460EE000BF00F0C0F9401B0A2869
:105B500008D9606A40F400306062052084F82000B3
:105B6000012070BD20684068C007EDD1606270BD43
:105B700070B5044690F82000022804D0606A40F412
:105B80008010606214E02068016841F0010101604A
:105B900000F09CF905460DE000F098F9401B0A283A
:105BA00008D9606A40F400306062052084F8200063
:105BB000012070BD20684068C007EDD020680168F2
:105BC00021F002010160012084F82000002070BD56
:105BD000704700000349097809B1FFF7B9B903F02C
:105BE00051B80000100000207047000003490978F8
:105BF00009B1FFF7ADB903F045B80000100000206F
:105C0000704700000349097809B1FFF7A1B903F013
:105C100039B800001000002070472DE9F04104461B
:105C2000876D00F053F9064694F8350000250228E8
:105C300006D08020606584F834500120BDE8F081F2
:105C40002068016821F0160101602068416921F097
:105C500080014161206C08B9A06C20B12068016806
:105C600021F0080101602068016821F00101016054
:105C70000CE000F02BF9801B052807D92020606577
:105C8000032084F8350084F83450D7E72068006892
:105C9000C007EED194F85C103F208840B860012026
:105CA00084F8350084F834500020C7E790F83510A8
:105CB000022903D08021416501207047052180F829
:105CC00035100068016821F0010101600020704773
:105CD0002DE9F84FDFF8BCA10022012503264FF083
:105CE0000F090AF1040BAAF1040E00BF0B6805FAB4
:105CF00002F42340A34270D10F7907F00307012F6C
:105D000001D0022F16D187684FEA420806FA08FC34
:105D100027EA0C07D1F80CC00CFA08FC4CEA070C77
:105D2000C0F808C04768A7430C79C4F30014944036
:105D30003C4344600C79E443A4070AD0C4684FEAAA
:105D4000420C06FA0CF7BC438F6807FA0CF727439E
:105D5000C7600C7904F00304022C12D1D40800EBC4
:105D6000840CDCF820405707FF0E09FA07F824EAF4
:105D70000804D1F8108008FA07F848EA0408CCF8BB
:105D8000208004684FEA420C06FA0CF7BC430F79F6
:105D900007F0030707FA0CF7274307604C6814F471
:105DA000403F70D03C4C276847F480472760246808
:105DB00022F0030704F480440094384C07EB040CF1
:105DC000DCF8084897074FEA177809FA08F7BC4348
:105DD000334FB84202D1002724E054E0314FB8429B
:105DE00001D101271EE0304FB84201D1022719E04E
:105DF0002E4FB84201D1032714E02D4FB84201D1F4
:105E000004270FE02B4FB84201D105270AE02A4FA3
:105E1000B84201D1062705E0284FB84201D1072733
:105E200000E0082707FA08F72743CCF80878DAF8E3
:105E300000405746D1F804C09C435FEACC2C00D503
:105E40001C433C60DBF800405F46D1F804C09C4333
:105E50005FEA8C2C00D51C433C60DEF8004077469E
:105E6000D1F804C09C435FEA8C3C00D51C433C60E5
:105E7000084F083F3C68D1F804C09C435FEACC3C23
:105E800000D51C433C60521C102AFFF42FAFBDE824
:105E9000F88F0000083C01404438024000300140C7
:105EA000000002400004024000080240000C0240D2
:105EB000001002400014024000180240001C024082
:105EC0000AB1816170470904FBE70000014880685E
:105ED000704700002C00002070B5040025D094F815
:105EE0003D00002520B984F83C50204600F008FB16
:105EF000242084F83D002068016821F00101016040
:105F00002068016841F4004101602068016821F4C3
:105F10000041016000F06CFD4D4A6168914201D87A
:105F20004C4900E04C49884201D2012070BD4B49E8
:105F30002368B0FBF1F15E6826F03F060E435E6019
:105F40006368934206D94FF4967359434FF47A73BA
:105F5000B1FBF3F12368491C1E6A26F03F0631436A
:105F600019626168914210D84900401EB0FBF1F2FD
:105F7000521CC2F30B02042A01D2042022E0B0FB1F
:105F8000F1F0401CC0F30B001CE0A268F2B301EB7F
:105F9000C10303EB0116431EB3FBF6F35B1C43F492
:105FA00080431B0549D092B301EBC10202EB011102
:105FB000401EB0FBF1F0401CC0F30B0040F48040E9
:105FC00040F400402168CA694CF6FF739A431043BD
:105FD000C861D4E9071001432068026822F0C002BA
:105FE00011430160D4E9030101432068826848F24B
:105FF000FF339A4311438160D4E9050108432168C6
:10600000CA6822F0FF021043C86001E00EE016E00B
:106010002068016841F0010101602564202084F8B6
:106020003D00256384F83E50002070BD01EB410621
:10603000431EB3FBF6F35B1CB3E70120C2E701EBA1
:106040004101401EB0FBF1F0401CC0F30B00B7E76C
:10605000A086010080841E0000093D0040420F0020
:106060002DE9FF4F81B089460446FFF72FFF054613
:1060700094F83D004FF0000820287DD1192301221B
:1060800050492046009501F057FE002874D194F83D
:106090003C00012870D0012084F83C002068016891
:1060A000C90703D1016841F001010160206801685E
:1060B00021F400610160242084F83D00002626645C
:1060C0004148E0624FF0011B20272068016841F43D
:1060D000807101600095002259462046049B01F022
:1060E0002BFE50B120680068C00502D54FF4007047
:1060F0002064032005B0BDE8F08F216809F0FE00A0
:106100000861FFF7E3FE2168054648694969C0F365
:106110004000C1F380214FF0A00A0FE0FFF7D6FE48
:10612000411B0498814200D808B984F83DA0216839
:1061300048694969C0F34000C1F3802194F83D20CB
:10614000A02A02D008B90029E8D084F83D70206860
:106150004169C943890716D4016841F4007101609F
:10616000206841698069192301221649204600955B
:1061700001F0E2FDB8B900E021E084F83D7084F858
:106180003C600020B6E7016841F4007101602168BD
:106190006FF480604861192301220A492046009566
:1061A00001F0CAFD08B10120A4E7039808F1010835
:1061B00080458AD384F83D7084F83C60F3E7022080
:1061C00098E70000020010000000FFFF2DE9FF4FDC
:1061D00083B09A46DDE9118793460446DDF8409086
:1061E000FFF774FE054694F83D00202870D119236E
:1061F000012274492046009501F09EFD0028F5D14A
:1062000094F83C00012863D0012084F83C00206809
:106210000168C90703D1016841F0010101602068EC
:10622000016821F400610160222084F83D004020D3
:1062300084F83E0000262664C4F82490A4F82A803E
:10624000608D20856048E062CDE9007553465A466E
:106250002046049901F072FC002879D1208DD0B13C
:10626000012821D00228206824D04169806900904B
:10627000208D032866D801282BD0544902283B469C
:106280004FF00002009557D08846204601F054FD9B
:1062900000285DD13AE02068416981690091016878
:1062A00041F4007101607DE02068016821F48061A3
:1062B0000160F0E7016821F48061016020680168F5
:1062C00041F400610160206841698069009069E0E3
:1062D00075E02A463946204601F0D4FD88BB54E0DB
:1062E0002068016841F40071016020680069616AFA
:1062F0000870606A401C6062218D491E2185618D95
:10630000491E618521680969017042E020680168C1
:1063100021F48061016020680069616A0870606A28
:10632000401C6062208D401E2085608D401E60856F
:106330003B46002241460095204601F0FDFC00B995
:10634000CEE705E02A463946204601F09BFD18B10C
:10635000012007B0BDE8F08F20680069616A08700D
:10636000606A401C6062208D401E81B22185608D74
:10637000401E608520684269D243520712D4032927
:1063800003D1016821F48061016020680069616ABD
:106390000870606A401C6062208D401E2085608D00
:1063A000401E6085208D00287FF462AF202084F895
:1063B0003D0084F83E6084F83C600020C9E702207C
:1063C000C7E70000020010000000FFFF040001000A
:1063D0002DE9FF4F83B09A46DDE9119793460446B5
:1063E000DDF84080FFF772FD054694F83D00202857
:1063F0007FD11923012240492046009501F09CFCE1
:10640000002876D194F83C00012872D0012084F84D
:106410003C0020680168C90703D1016841F001010F
:1064200001602068016821F400610160212084F886
:106430003D00402084F83E0000262664C4F82480F5
:10644000A4F82A90608D20852C48E062CDE9007583
:1064500053465A462046049901F0EEFB70B930E0ED
:106460002A463946204601F045FD58B1206C0428E3
:1064700004D12068016841F400710160012007B077
:10648000BDE8F08F606A216800780861606A401C8E
:106490006062218D491E89B22185628D521E6285FE
:1064A00022685369DB435B070BD469B10078106144
:1064B000606A401C6062208D401E2085608D401EF9
:1064C0006085208D0028CBD12A463946204601F030
:1064D00007FC0028CAD154F83D0B016841F4007153
:1064E0000160202004F81E09E67766770020C6E7E1
:1064F000FFE70220C3E70000020010000000FFFFDA
:10650000F0B587B0044614216846FDF703FF1D4926
:106510002068884233D11C480024016841F00401FE
:106520000160016801F004010591016841F0010179
:1065300001600068122500F0010005904FF4007022
:10654000CDE9000502AA0326042782E8D0006946A7
:106550000E48FFF7BDFBB801CDE9000502AA694668
:1065600082E8D0000A48FFF7B3FB07481030016803
:1065700041F400010160006800F40000059007B0DC
:10658000F0BD0000005C00403038024000080240CE
:10659000000002400248816802781144816070471F
:1065A0002C0000200B4810B5016841F40071016017
:1065B000016841F480610160016841F4807101600B
:1065C000032000F09FF80F2000F006F800F050F8CC
:1065D000002010BD003C024030B505461F4887B082
:1065E0000024016841F480710160006806A900F48C
:1065F0008070009001A800F0DBF90498A8B100F0C9
:10660000F7F940001649174AB0FBF1F11648491E48
:10661000026040F2E732C0E90324C0E9011484615A
:1066200000F024FF040003D015E000F0E1F9E9E7F1
:106630000D4800F049FF04000DD12D2000F034F882
:10664000102D07D2002229462D2000F03BF80748E4
:10665000056000E0012407B0204630BD403802400C
:1066600040420F000020004098030020300000202E
:106670000C4882B0016841F480410160006800F478
:10668000804000900748001F016841F08051016080
:106690000068002200F0805000900F21901E02B090
:1066A00000F010B844380240002809DB00F01F0257
:1066B000012191404009800000F1E020C0F8001164
:1066C00070470000F0B40E4B1B680C46C3F3022366
:1066D000C3F10705042D00D90425191D072901D28E
:1066E000002300E0DB1E012606FA05F1491E2140C9
:1066F00099409E40761E16403143F0BC02F01ABF0E
:106700000CED00E0064900F0070208684FF6FF03B1
:10671000184040EA0220034A104308607047000016
:106720000CED00E00000FA05034908B501200862FD
:1067300002480068009008BD00000E420070004052
:106740002DE9F843054600684FF00109C1074FF0F5
:10675000000601D1400727D5DFF80C81C8F8686032
:10676000FFF7B4FB0746414C05E000BFFFF7AEFB67
:10677000C01B022857D820680001F7D4686881013F
:10678000287A41EA0070394984310860C8F8689075
:10679000FFF79CFB074604E0FFF798FBC01B0228AD
:1067A00041D820680001F7D52878800752D52F48B6
:1067B0004030016841F08051016000682C4C00F0CD
:1067C00080500090206840F480702060FFF77EFBCE
:1067D000074604E0FFF77AFBC01B022823D8206895
:1067E000C005F7D5214C7034206810F4407020D0DB
:1067F000A98901F4407181421BD020681D4920F411
:106800004070C1F800900E6020602068C00710D072
:10681000FFF75CFB064641F2883707E0FFF756FBBF
:10682000801BB84202D90320BDE8F88320688007A6
:10683000F4D5E9680D48C1F301220830032A0BD0D2
:10684000016821F4F81101602068A989C1F30B01E6
:10685000084320600020E7E70268074B22F4F812A3
:1068600019400A430260EFE7000047420038024047
:1068700000700040400E4742FFFCFF0F2DE9F0473B
:106880000E46050065D0DFF81481D8F80000F7B295
:1068900000F00700B04207D288F80070D8F8000076
:1068A00000F00700B04254D128683D4C810712D552
:1068B000400703D5206840F4E050206028780007A6
:1068C00003D5206840F4604020602068A96820F06B
:1068D000F000084320602878C0072DD03049686850
:1068E0000839012812D0022813D0032811D00968D2
:1068F000890700292DDA216821F003010143216075
:10690000FFF7E4FA814641F2883A0EE0096889030C
:10691000EFE709688901ECE7FFF7D8FAA0EB090176
:10692000514502D90320BDE8F0872068696800F06E
:106930000C00B0EB810FEFD1D8F80010404601F009
:106940000701B14207D90770006800F00700B042A4
:1069500001D00120E7E72878400705D52068E968DD
:1069600020F4E050084320602878000706D520680E
:10697000296920F4604040EAC100206000F058F826
:106980002168084AC1F30311515CC84006490860F8
:1069900006480068FFF720FE0020C4E7003C0240E4
:1069A000083802404AC000083800002030000020AB
:1069B0000F2202600C4A136803F00303436013685C
:1069C00003F0F0038360136803F4E053C3601268BC
:1069D0004FF4E05303EAD20202610448006800F079
:1069E000070008607047000008380240003C024081
:1069F0000448054900680968044AC1F38221515CD2
:106A0000C840704738000020083802405AC00008CB
:106A10000448054900680968044AC1F34231515CE1
:106A2000C840704738000020083802405AC00008AB
:106A3000154810B5006810F00C02144813D041102E
:106A4000042A0FD0082A0ED10F4C241F2268236875
:106A500002F03F025B0207D52068C0F38810A0FB5C
:106A6000010106E0084610BD2168C1F38811A1FBB1
:106A700000010023FDF704FC2168C1F30141491C1A
:106A80004900B0FBF1F010BD083802400024F400CA
:106A90002DE9F84F04006ED02078DFF84C93C00742
:106AA000A9F104054AD009F104000168C1F381018C
:106AB000012908D00068C0F3810002280AD1D9F862
:106AC0000000400206D52868800337D5606800289A
:106AD000E1D033E06068B0F5803F10D0B0F5A02F72
:106AE000286810D020F480302860286820F48020A6
:106AF00028606068A8B1FFF7E9F906460DE028684C
:106B000040F48030F4E740F480202860F7E700BFCD
:106B1000FFF7DCF9801B642873D828688003F7D559
:106B20000CE0FFF7D3F9064605E000BFFFF7CEF90A
:106B3000801B6428F0D828688003F7D42078DFF819
:106B4000AC8280074FF0000A3ED5A748001D0168BF
:106B500011F00C0F08D00068C0F3810002280BD19F
:106B6000D9F80000400207D42868800716D5E068ED
:106B7000012800D112E033E1E068B8B10120C8F883
:106B80000000FFF7A3F9064605E000BFFFF79EF9F6
:106B9000801B0228C0D828688007F7D5286821699B
:106BA00020F0F80040EAC10028600DE0C8F800A01D
:106BB000FFF78CF9064604E0FFF788F9801B0228EE
:106BC0001FD828688007F7D42078000722D5864F81
:106BD00087486169703771B101210160FFF776F96B
:106BE000064604E0FFF772F9801B022809D83868CE
:106BF0008007F7D50EE0C0F800A0FFF767F906465A
:106C000005E082E0FFF762F9801B02287DD8386832
:106C10008007F7D42078400768D5DFF8CCB100278B
:106C20000BF13C0BDBF80000C0000BD4DBF80010CC
:106C300041F08051CBF80010DBF80000012700F094
:106C4000805000906B4E3068C00510D4306840F41E
:106C500080703060FFF73AF9009005E0FFF736F9F1
:106C60000099401A022850D83068C005F6D55E4E0B
:106C7000A0686C3601280FD00528306810D020F0AD
:106C800001003060306820F004003060A068B8B1C6
:106C9000FFF71CF900900FE0306840F00100F4E7C6
:106CA00040F004003060F7E7FFF710F90099411A4F
:106CB00041F28830814266D830688007F4D50EE012
:106CC000FFF704F9009007E0FFF700F90099411A77
:106CD00041F28830814256D830688007F4D42FB111
:106CE000DBF8001021F08051CBF80010A069C8B388
:106CF0003D49091D0968C1F3810102294AD00228D2
:106D0000504607D0C8F8600000E03CE0FFF7DEF82E
:106D100004463BE04746C8F86000FFF7D7F8064650
:106D200005E000BFFFF7D2F8801B02282BD82868A7
:106D30008001F7D4D4E907010843A16A2E4A490823
:106D400002EB0141626A41EA8211084394F82C1077
:106D500040EA0161C9F8001001203866FFF7B6F873
:106D6000044606E03EE000BFFFF7B0F8001B022833
:106D700009D828688001F7D534E000BFFFF7A6F8EE
:106D8000001B022802D90320BDE8F88F2868800183
:106D9000F4D427E00128F7D0D9F80000E26900F424
:106DA000800191421CD1226A00F03F01914217D12B
:106DB00047F6C071626A0140B1EB821F10D1A26A2E
:106DC0004FF0FF3300F4403103EB5202B1EB024FBE
:106DD00006D194F82C1000F07060B0EB016F01D078
:106DE0000120D1E70020CFE70438024000004742ED
:106DF000800E4742007000400000FFFF00685030E6
:106E000050F8210070470068503040F8212070474A
:106E100010B500680B4641680D480140080CD87059
:106E2000C1F304245C7001F03F049C70C1F3423153
:106E3000197052B901F069FFD870587801F065FFF8
:106E40005870987801F061FF9870002010BD000024
:106E50003FFFFF0010B50B460168896A5960016861
:106E60000969C1F30E019960006801680D4801408D
:106E7000C1F305401870C1F306245C7001F07F0473
:106E80009C70890DD97052B901F03FFF1870587885
:106E900001F03BFF5870987801F037FF98700020A0
:106EA00010BD00007F7F7F0010B5040002D0607F1E
:106EB00010B106E0012010BD00202077204600F030
:106EC00041F8022060772068C168C943C90632D5FD
:106ED000CA214162216853204862204601F02AFFFE
:106EE00020BB20688168164A11408160216888684B
:106EF00062681043D4E904231A4310438860216870
:106F0000E068086120680169228941EA0241016163
:106F1000204601F033FF48B921680A6C22F4802230
:106F20000A6421680A6CA3691A430A642268FF2173
:106F3000516208B110BD00200121617710BD000031
:106F4000BFFF8FFF1FB500210091019102910391B6
:106F50000068084988420CD102200090C0010390CB
:106F60006846FFF7EDFB08B1FEF787F802490120FC
:106F700008601FBD002800403C0E474270B5044623
:106F8000007F0B46012819D0012626770220607762
:106F9000B2B19878D97840EA01455878197800025A
:106FA00040EA413005432168CA20486221685320E5
:106FB0004862204601F0BEFED0B122E0022070BD42
:106FC0005878C10603D500F0EF000A305870D87821
:106FD00001F0A4FE0204587801F0A0FE42EA00226B
:106FE000987801F09BFE0243187842EA4035DAE7D0
:106FF0000748054020684560204601F0BFFE00B903
:1070000066772268FF2151620021217770BD000060
:107010003FFFFF002DE9F0410446007F0D460128A7
:1070200023D04FF0010884F81C800220607720688C
:10703000002780684FEA4060D2B1002800DBEF7083
:10704000A878297840EA01466878E978000240EAA1
:10705000815006432168CA20486221685320486253
:10706000204601F067FEB8B12CE00220BDE8F081B7
:10707000002800DBEF70287801F050FE02046878E9
:1070800001F04CFE42EA0022A87801F047FE0243DC
:10709000E87842EA8056DDE70D4806402068066041
:1070A0002068816821F480218160D5E903010843CB
:1070B00021688A6810438860204601F05FFE08B9A5
:1070C00084F81D802268FF2151622777CEE70000F7
:1070D0007F7F7F0070B504460B482168C860FEF7CB
:1070E000F5FE05464FF47A7607E000BFFEF7EEFEA8
:1070F000401BB04201D9032070BD2068C0688006E3
:10710000F4D5002070BD00005F7F010070B5040061
:1071100009D0606A002540B125616561A56294F8D7
:10712000510040B10CE0012070BD6068B0F5827F75
:10713000F4D0E561F2E784F85050204600F044F8BE
:10714000022084F851002068016821F040010160AC
:10715000A088218900F4827001F404410843A189C8
:1071600001F400610843217C01F002010843217D04
:1071700001F001010843218B01F400710843217FD4
:1071800001F03801084394F8201001F08001084311
:10719000218D01F40051084321680860A069042191
:1071A00001EA104094F8241001F01001084321680E
:1071B00048602068C16921F40061C16165650120F2
:1071C00084F85100002070BD30B587B0044614210A
:1071D0006846FDF79FF8234D2268002122480223CC
:1071E0000324AA421BD1204A1432156845F4805565
:1071F0001560126802F480520592026842F00202A1
:1072000002600068CDE9021400F002000590382009
:10721000CDE9000305200490694614481EE0144D92
:10722000AA421DD1104A1032156845F40045156078
:10723000126802F400420592026842F00402026001
:107240000068CDE9021400F0040005904FF4E0500E
:10725000CDE900030620049069460648FEF738FD94
:1072600007B030BD00300140303802400004024019
:10727000003C0040000802402DE9FF4F81B01D4650
:10728000934604464FF001090E9EFEF71FFE074687
:1072900094F851006168012806D0B1F5827F3CD195
:1072A000A168C9BB042838D10298002871D0BBF16D
:1072B000000FFBD0002DF9D094F8500001282CD0FD
:1072C0004FF0010A84F850A094F85100042802D02D
:1072D000052084F851004FF00008C4F85480C4F829
:1072E00038B0E587A58702992163E586A586C4F8AD
:1072F0004080C4F8448020680168490603D40168CE
:1073000041F040010160E068B0F5006F606808D0AE
:10731000F0B3012D49D081E0FFE7022005B0BDE8C0
:10732000F08F08B1012D39D1206B21680088C86029
:10733000206B801C2063E08E401EE0862EE02068DB
:10734000816889070FD5E18E69B1B9F1010F0AD1C2
:10735000216B0988C160206B801C2063E08E401E79
:10736000E0864FF0000920688168C9070CD0E18FE2
:1073700051B1C068A16B0880A06B801CA063E08F36
:10738000401EE0874FF00109FEF7A0FDC01B01E0A1
:107390000BE067E0B04201D3701C50D1E08E0028B2
:1073A000CDD1E08F0028CAD13EE0206B2168007863
:1073B0000873206B401C2063E08E401EE0862DE0A9
:1073C0002068816889070FD5E18E69B1B9F1010F95
:1073D0000AD1216B09780173206B401C2063E08E79
:1073E000401EE0864FF0000920688168C9070CD074
:1073F000E18F51B1C068A16B0870A06B401CA06305
:10740000E08F401EE0874FF00109FEF75FFDC01BD3
:10741000B04202D3701C01D011E086B1E08E00288A
:10742000CED1E08F0028CBD13A463146204601F03C
:1074300005FD50B12020606584F8508012E084F88A
:1074400051A084F85080032068E7A06818B920682C
:10745000C1688068009084F851A084F85080606D05
:107460000028F1D0012059E77047704710B504009B
:1074700003D094F83D0010B107E0012010BD0020BA
:1074800084F83C00204600F01EF8022084F83D00FD
:10749000211D206801F068FE012084F8460084F870
:1074A0003E0084F83F0084F8400084F8410084F8EE
:1074B000420084F8430084F8440084F8450084F8CE
:1074C0003D00002010BD704790F83D10012901D00B
:1074D00001207047022180F83D100168CA6842F01F
:1074E0000102CA6000681149884214D0B0F1804F8F
:1074F00011D00F4988420ED00E4988420BD00E4958
:10750000884208D00D49884205D00D49884202D0F2
:107510000C49884204D1816801F00701062903D093
:10752000016841F001010160002070470000014046
:107530000004004000080040000C0040000401402E
:10754000004001400018004070472DE9F04104461A
:107550000068C66805694FF00007A90713D5B10791
:1075600011D5F91E0161012020772068806980070C
:10757000204602D0FFF7E8FF04E000F07EF8204646
:1075800000F07CF82777680716D5700714D52168B6
:107590006FF004000861022020772068806910F4F1
:1075A000407F204602D0FFF7CFFF04E000F065F8EF
:1075B000204600F063F82777280715D5300713D544
:1075C00021686FF008000861042020772068C069F6
:1075D0008007204602D0FFF7B7FF04E000F04DF827
:1075E000204600F04BF82777E80616D5F00614D5AC
:1075F00021686FF010000861082020772068C069BA
:1076000010F4407F204602D0FFF79EFF04E000F018
:1076100034F8204600F032F82777E80708D0F00762
:1076200006D021686FF001000861204600F028F8BC
:10763000280608D5300606D521686FF0800008615D
:107640002046FFF711FF680608D5700606D52168A9
:107650006FF040000861204600F01CF8A8060AD52B
:10766000B00608D521686FF0200008612046BDE80B
:10767000F041FFF7FABEBDE8F081704770470000A7
:1076800000680349884201D1FEF784BF70470000BB
:10769000002000407047704700680549884205D1C6
:1076A00004480068002801D002F012BB70470000B7
:1076B0000010014028000020F8B501680446086861
:1076C000CA684B6910F00F0F4FF0000559D003F056
:1076D000010602F49077374365D0C10705D0D10584
:1076E00003D5616C41F001016164410705D5D907FB
:1076F00003D0616C41F002016164810705D5D907AF
:1077000003D0616C41F004016164010707D502F008
:107710002001314303D0616C41F008016164616C68
:1077200000293AD0800604D5900602D5204601F003
:10773000B1FD20684069616CC0F38010090700D476
:1077400060B3204601F07FFD20684069400621D5E6
:107750002068143050E8001F21F0400140E800127A
:10776000002AF5D1E06BA8B172490165E06BFEF724
:107770009DFA002811D0E06B016D01B0BDE8F0402A
:10778000084783060FD593060DD52046BDE8F8407F
:1077900001F080BD2046FFF77FFFF8BD2046FFF7D0
:1077A0007BFF6564F8BD266B2023012E7ED1C606C3
:1077B0007CD5D6067AD508684868009048694FF0AD
:1077C000020640064DD5E26B106840684FF48077A2
:1077D0000004000C3AD0A18D814237D9E085D069F0
:1077E000B8422DD020680C3050E8001F21F4807181
:1077F00040E80012002AF5D12068143050E8001F3C
:1078000021F0010140E80012002AF5D1206814306F
:1078100050E8001F21F0400140E80012002AF5D195
:1078200084F84230256320680C3050E8001F21F0B6
:10783000100140E80012002AF5D1E06BFEF7EDF9E7
:107840006663A08DE18D401A81B206E0A18D814270
:10785000A8D1D069B842A5D166632046FFF71BFFC7
:10786000F8BDA08DE18D401A81B2E08D0028F7D0DF
:107870000029F5D020680C3050E8002F22F49072D7
:1078800040E80027002FF5D12068143050E8002F81
:1078900022F0010240E80027002FF5D184F84230A1
:1078A000256320680C3050E8002F00E006E022F04D
:1078B000100240E80023002BF3D1CDE705062BD5BD
:1078C000150629D594F841002128C9D1A068B0F542
:1078D000805F01D12069B0B1206A411C216221681A
:1078E00000784860E08C401E0004000CE084B7D1B2
:1078F0002068C16821F08001C1602068C16841F042
:107900004001C160F8BD206A0088C0F308004860EB
:10791000206A801C2062E5E74006F3D55006F1D5C9
:10792000CA68204622F04002CA6084F8413000F064
:10793000DDF8F8BD3992000870B5040004D094F861
:107940004100002510B106E0012070BD84F84050D0
:10795000204600F023F8242084F841002068C16804
:1079600021F40051C160204601F0F6FC2068016955
:1079700021F4904101612068416921F02A014161AF
:107980002068C16841F40051C1606564202084F81A
:10799000410084F842006563002070BD10B586B0D8
:1079A000044614216846FCF7B5FC18492068884253
:1079B00029D117480021026842F0100202600068D5
:1079C00000F01000059012481438026842F00102DD
:1079D0000260006800F0010005904FF4C060009064
:1079E0000220CDE90101032003900720049069469D
:1079F0000848FEF76DF9002205212520FEF762FEFA
:107A00002520FEF751FE06B010BD00000010014019
:107A1000443802400000024070472DE9F843044614
:107A200090F84100984616460D46202802D00220C4
:107A3000BDE8F88385B17EB100206064212084F820
:107A40004100FEF743FAA6848146E684A068202719
:107A5000B0F5805F02D003E00120E9E7206910B1B2
:107A60002E4600250EE000260CE08021204601F085
:107A7000F9FCA8B9C6B116F8010B21684860E08C82
:107A8000401EE084E08C4B464FF00002CDF80080B1
:107A90000028EAD14FF04001204601F0E3FC40B15C
:107AA00084F841700320C3E735F8020BC0F30800E7
:107AB000E3E784F841700020BAE790F84130202BCA
:107AC00001D00220704779B172B101628284C28410
:107AD00000214164212180F841100068C16841F013
:107AE0008001C1600020704701207047006805498F
:107AF000884205D104480068002801D002F0E8B8A7
:107B0000704700000010014028000020FEE70168D7
:107B10004A69D24352050FD46FF480624A61002152
:107B200040F8301F202242738173026942F0040240
:107B30000261017301207047002070472DE9F84F62
:107B40000446006889460B9D01689846174641F433
:107B5000806101602068016841F4807101600095D6
:107B60004FF0011B0022594620460A9B00F0E4F822
:107B70004FF4007A40B120680068C00501D5C4F810
:107B800040A00320BDE8F88F216809F0FE000861DD
:107B90002B46284920460A9A00F016F9F0BB2068C7
:107BA0004169806900902A4620460A9900F0A2F9AE
:107BB00040B1206C04283AD12068016841F400717A
:107BC000016034E0FEB2B8F1010F09D02168380A33
:107BD00008612A4620460A9900F08CF90028E8D16D
:107BE000206806612A4620460A9900F083F9002899
:107BF000DFD12068016841F48071016000950022A6
:107C0000594620460A9B00F097F80028B3D1216816
:107C100009F0FF0040F00100086100E007E02B469A
:107C2000044920460A9A00F0CFF80028AAD0012083
:107C3000A8E70000020001002DE9F84304460068AF
:107C40000D46DDE9089701689846164641F48071B3
:107C500001604B4600224FF001112046009700F0D2
:107C60006BF848B120680068C00502D54FF4007079
:107C700020640320BDE8F883216805F0FE00086158
:107C80003B464A461549204600F09EF888B92068D0
:107C90004169806900903A464946204600F02AF939
:107CA00048B1206C042804D12068016841F40071B7
:107CB00001600120DEE7F5B2B8F1010F09D02168BB
:107CC000300A08613A464946204600F013F9002878
:107CD000E7D1206805610020CCE700000200010028
:107CE00070B516460D4604461EE02046FFF70FFF0E
:107CF00008B1012070BD681C16D0FEF7E7F8801BA4
:107D0000A84200D885B920684069C04340070BD518
:107D1000002044F8300F20216173A073216941F0E5
:107D2000200121612073E4E720684069C0434007D7
:107D3000DBD4002070BD00002DE9F04798461746BF
:107D40000D460446C1F30746DDF820902AE000BF47
:107D5000B8F1FF3F26D0FEF7B9F8A0EB0901414585
:107D600002D8B8F1000F1DD12068012E16D080690D
:107D700025EA00000004000C12D00020B84211D106
:107D8000002044F8300F20216173A073216941F075
:107D90002001216120730120BDE8F0874069E7E7F9
:107DA0000120EBE72068012E0AD0806925EA000057
:107DB0000004000C06D00020B842C9D00020EBE738
:107DC0004069F3E70120F7E72DE9F04798461646AA
:107DD0000D4604464FF000094FF0200AC1F3074753
:107DE00023E020684069C043400515D4206801683D
:107DF00041F40071016021686FF480604861C4F84B
:107E0000309084F83DA084F83E90216C41F004014C
:107E1000216484F83C9021E0701C06D0FEF756F8EF
:107E2000A0EB0800B04203D816B1012F1FD021E00B
:107E30002068012F15D0806925EA00000004000C9D
:107E400018D000BF44F8309F84F80DA084F80E903D
:107E5000216941F02001216184F80C900120BDE8E6
:107E6000F087406925EA00000004000CEAD1206890
:107E7000406901E02068806925EA00000004000CE8
:107E8000AFD1ECE72DE9F041002590460E460446BF
:107E9000202728E04069C043C0060CD454F8301BAA
:107EA0006FF01000486144F810596777A577206A91
:107EB0002062257714E0FEF709F8A0EB0800B04235
:107EC00000D886B920684069C04340060BD544F805
:107ED000305F6773A573206940F02000206125732F
:107EE0000120BDE8F08120684169C9434906D1D429
:107EF0000020F6E770B516460D4604461EE0204603
:107F0000FFF705FE08B1012070BD681C16D0FDF713
:107F1000DDFF801BA84200D885B920684069C043B6
:107F200000060BD5002044F8300F20216173A073A8
:107F3000216941F0200121612073E4E72068406954
:107F4000C0430006DBD4002070BD00002DE9F041E5
:107F5000364CB4F8540194ED020BB0F5FF7F02D813
:107F6000401CA4F8540194F8FF11002601270320B7
:107F7000C1B194F800224FF00208012A15D0022A5C
:107F80001DD04FF496719FED2A1B032A21D0B4F81F
:107F9000542101258A4234D3A4F8546184F80002A4
:107FA000002539E084F8FF71F6E7B4F854010025A4
:107FB0000A2831D3A4F8546184F8008213E0B4F89D
:107FC000540101250A2827D3A4F8546184F80072CB
:107FD000E6E7B4F854010025884206D3A4F85461BA
:107FE000042084F80002012516E053EC112B51EC1B
:107FF000100BFCF7AFF90FD1A4F8546184F80072AC
:108000000AE053EC112B51EC100BFCF7A3F903D150
:10801000A4F8546184F800822846FCF793FC94EDA0
:10802000000B84ED020BBDE8F081000070550020CC
:10803000000000000000F03F00F042B800F04FB830
:1080400000F05EB800F06FB800F010B900F018B999
:1080500000F020B970B5002215460BE002EB821447
:10806000002301EB8404E6185B1CF573062BFADB96
:10807000521CD2B28242F1D370BD0000F0B5002292
:1080800012260424092506274FF0020C0EE000BF3B
:1080900002EB821301EB8303521C03F8DC6FD2B2B4
:1080A0005C709D70DF701C7183F805C08242EFD355
:1080B000F0BD00F001B910B500F090F9C0B210BDEC
:1080C000C0F3400208B5121D01EBC0108DF800206E
:1080D00060308DF80100684601F01EFC08BD08B54F
:1080E000C0F34003C00100EB01109B1C10448DF84D
:1080F000003060308DF80100684601F00DFC08BDCD
:1081000038B5C0F34004C00100EB81101044A41C3A
:1081100000EB03108DF8004028308DF80100684610
:1081200001F0FAFB38BDC0F3400208B5C001121DD2
:1081300000EB81108DF8002010308DF801006846AA
:1081400001F0EAFB08BD0000F0B5052916D2DFE812
:1081500001F0032A4B6B160000210DE001EB8113A7
:1081600002EB8303491C33F8C05F13F8B24C25447B
:108170001D805D882C445C808142EFDBF0BD0021D6
:108180000EE000BF01EB811302EB8303491C33F8BF
:10819000C05F13F8A34C25441D805D882C445C808F
:1081A0008142EFDBF0BD00231BE0002114E000BFA3
:1081B00003EB831402EB84046518B4F8C06015F86F
:1081C000427F3E44A4F8C06004EB41042D7834F8AB
:1081D000C46F491C3544258092F8DF408C42E7DCAF
:1081E0005B1C8342E1DBF0BD00231AE0002113E0B9
:1081F00003EB831402EB84046518B4F8C06015F82F
:108200005A7F3E44A4F8C06004EB41042D7834F852
:10821000D06F491C3544258092F8E0408C42E7DC61
:108220005B1C8342E2DBF0BD00231BE0002113E076
:1082300003EB831402EB84046518B4F8C06015F8EE
:108240006B7F3E44A4F8C06004EB41042D7834F801
:10825000D86F491C3544258092F8E140641E8C4259
:10826000E6DC5B1C8342E1DBF0BD000008B503A047
:1082700000680090684601F04FFB08BD071200003F
:1082800008B503A000680090684601F045FB08BDF2
:108290000711000030B5002215460AE002EB8214F7
:1082A000002301EB8404E5545B1C062BFBDB521C12
:1082B000D2B28242F2D330BD2DE9F84307461646CA
:1082C0000C464FF00008C80001F0F8FB814637B1BA
:1082D00002462146384600F051F800253FE00127CC
:1082E0001FE04A462146384600F048F8002514E0D1
:1082F00096F8BF00D8B1601B401EC0B200EB8010E2
:1083000006EB800303F15A000090E8B24A46394672
:10831000483301F00FFE80466D1CA542E8DB7F1C50
:10832000FFB296F8E000401CB842DAD819E0E8B293
:10833000E4E700BF96F8BF00F0B1601B401EC0B27A
:1083400000EB801006EB800303F15A000090E8B2C6
:108350004A463946483301F0EDFD80466D1CA54282
:10836000E8DB324602212046FFF7EEFE484601F0E8
:1083700023FB4046BDE8F883E8B2E1E738B50C4698
:108380000C2100231546012805D0022806D0032819
:1083900006D0042820D08DF8011004E00E2000E063
:1083A0000D208DF801008DF800306946022001F0A3
:1083B000F5FD010A8DF802108DF803000A2001F086
:1083C000CFFAE006030E2A460421684602F09FFB1E
:1083D0000A2001F0BDFA38BD0F20E2E72DE9F8438D
:1083E000804617460D460026C80001F067FB81460F
:1083F000B8F1000005D04A46294600F055F800249F
:1084000043E0012021E04A462946404600F04CF86E
:10841000002415E097F8BF00F0B1281B401EC0B241
:1084200000EB801007EB800303F142000090E0B204
:108430004A4641461E3301F07DFD304446B2641C7D
:10844000AC42E7DB08F10100C0B2804697F8DF00DC
:10845000401C4045D7D81AE0E0B2E1E797F8BF00EA
:1084600000B3281B401EC0B200EB801107EB810354
:1084700003F1420109EBC0020091E0B241461E3314
:1084800001F058FD304446B2641CAC42E6DB3A468B
:1084900001212846FFF758FE484601F08DFAF0B258
:1084A000BDE8F883E0B2DFE738B5002315460C4697
:1084B00001280AD002280AD003280AD004280AD0AA
:1084C00005280AD006280AD00EE0042008E006207D
:1084D00006E0082004E00A2002E0092000E00B206A
:1084E0008DF801008DF800306946022001F056FD3C
:1084F000010A8DF802108DF803000A2001F030FA0D
:10850000E006030E2A460421684602F000FB0A201A
:1085100001F01EFA38BD00007FB500241548009414
:10852000019402941249039401604FF48031C0E930
:1085300001140461047680F820400F49C0E90A1450
:108540000125C561C46080F830404561FCF73EFEFE
:1085500008B1FCF792FD0420CDE9000569460294BC
:108560000448FCF78DFD002801D0FCF786FD7FBD97
:1085700000200140E40000200100000F104810B569
:108580000E4901600421416000214FF460228160A6
:10859000C0E903124FF48002426101760122427663
:1085A0008176C27601774177FDF725F9002803D05F
:1085B000BDE81040FCF761BD10BD00000064004044
:1085C0002C010020104810B50E49016004214160C3
:1085D00000214FF460228160C0E903124FF4800251
:1085E00042610176012242768176C2760177417737
:1085F000FDF701F9002803D0BDE81040FCF73DBDB0
:1086000010BD0000006800405401002010B500F0CB
:1086100049FA00F041FB0E4A00210E4801F084FBAC
:108620000D4C0B4A0021206024320C4801F07CFBE9
:10863000074A606048320021094801F075FB044A8E
:10864000A0606C320021074801F06EFBE06010BDB5
:1086500094BF0008B58F000800000020C18F0008FB
:10866000CD8F0008E98F00082DE9F04F87B0142165
:108670006846FBF74FFE50480024016841F00401B2
:108680000160016801F004010591016841F0800179
:108690000160016801F080010591016841F001016C
:1086A0000160016801F001010591016841F00201DA
:1086B0000160016801F002010591016841F01001BB
:1086C0000160016801F010010591016841F00801A5
:1086D00001600068DFF8E48000F0080005900022E7
:1086E000C0214046FDF7ECFBDFF8D490002230219A
:1086F0004846FDF7E5FBDFF8CCA040F2014600223A
:1087000031465046FDF7DCFBDFF8BCB04FF47C5738
:10871000002239465846FDF7D3FB002203212B489F
:10872000FDF7CEFBC02000900125CDE9015469463C
:1087300040460394FDF7CCFA30200090CDE9015477
:10874000694648460394FDF7C3FA0096CDE9015403
:10875000694650460394FDF7BBFA4CF60600CDE996
:108760000004694650460294FDF7B2FA4CF28000CC
:10877000CDE90004694658460294FDF7A9FA00972E
:10878000CDE90154694658460394FDF7A1FA4FF428
:10879000F850CDE9000469460C480294FDF798FAB8
:1087A00003200090CDE90154694608480394FDF781
:1087B0008FFA07B0BDE8F08F303802400000024069
:1087C000000802400004024000100240000C024079
:1087D0000D4810B50B4901600C49416000214FF470
:1087E00080428160C0E9031241618161C16101621F
:1087F000FDF772FB002803D0BDE81040FCF73DBC3C
:1088000010BD0000005C0040AC010020A08601000B
:108810002DE9F04F95B014210BA8FBF77BFD6C48B8
:1088200000246A491094C0E900147F218160FF216F
:10883000C0E9031444618461FEF736FB08B1FCF71C
:108840001CFCFDF771FFDFF88C91A046002189F830
:1088500000405F48FEF7D2FAA0F548514FF0010AF8
:10886000F23953D1142105A8FBF754FD002205A9C4
:108870005748CDF82880FEF7EDFA00220AA954489F
:10888000FEF7C6FA9DF82A0003909DF814009DF8A3
:108890002B6012909DF815009DF8297011909DF89D
:1088A00016B0002440F2B27506F5FA660BE02846D1
:1088B00001F0FCFF10B14FF4B77001E040F26D1011
:1088C0006D1C0444ADB2B542F1D3012506E0294642
:1088D000304601F0D7FF6D1C0444EDB2BD42F6D323
:1088E00003983D492044401E48431299C1EB411270
:1088F000C2EB012100EB01111198C0EB001001EB5C
:1089000080015944C9F8041089F800A000213048BA
:10891000FEF774FA43F2F225A84227D08DF82C8096
:108920008DF82D8044468DF82E80CDF838800122B8
:108930000BA92748CDF83C80FEF76CFB08B1FCF78B
:108940009CFB8DF840A08DF841A08DF842A08DF8D9
:108950004340012210A91E48FEF710FB08B1FCF7A6
:108960008CFB2A4600211A48FEF74DFA8DF82C8020
:108970008DF82D8044468DF82E80CDF83880012268
:108980000BA91348CDF83C80FEF744FB08B1FCF777
:1089900074FB8DF840A08DF841A08DF842A08DF8B1
:1089A0004340012210A90A48FEF7E8FA08B1FCF793
:1089B00064FB99F800004D46002803D0686801F078
:1089C00089FF2C7015B0BDE8F08F00000028004032
:1089D0000002002020000020805101000F4810B547
:1089E0000D4901604FF48271416000218160C160D6
:1089F0004FF400720161C0E90512C1610162416278
:108A000081620A21C162FEF781FB002803D0BDE824
:108A10001040FCF732BB10BD0030014020020020A6
:108A2000104810B50E4901604FF482714160002179
:108A300002228160C0E90312012242615202826176
:108A40002822C0E90721416281620A21C162FEF742
:108A50005DFB002803D0BDE81040FCF70EBB10BD45
:108A6000003C0040780200200C4810B50A49016023
:108A70004FF4E1314160002181600C22C160C0E906
:108A800004128161C161FEF757FF002803D0BDE8E1
:108A90001040FCF7F2BA10BD001001405003002056
:108AA000FEE7000070B51548FCF791FD0546134838
:108AB0002830FCF78CFD0446032D00D90325032C38
:108AC00000D903240E4EB06828B90022294603209D
:108AD00001F0B2F8B060F06828B900222146032006
:108AE00001F0AAF8F06001210448FCF7ECFBBDE8B6
:108AF0007040024803212830FCF7E5BB2C01002020
:108B0000100000202DE9F041884604460068224903
:108B1000884201D1214D01E0204D6D1C8069C0F3D8
:108B20008006204600F0A0F807461EB101202870FC
:108B3000BDE8F08128780026F0B12E70072120468C
:108B4000FCF79EFB94F82000012809D094F820003F
:108B5000022805D02046FDF70BF82046FCF7DCFF85
:108B600041462046FCF7AFFB6662002FE0D0384656
:108B7000BDE8F04101F0ACB894F820000528D7D149
:108B80002046FCF7F5FF2046FCF7C6FF414620468D
:108B9000FCF799FB6662CBE70064004011000020FF
:108BA00070B50C46050014D09CB10A46014601235D
:108BB000094800F013F806460748032322462946D1
:108BC000283000F00BF801460EB1002900D100203A
:108BD00070BD012070BD00002C0100202DE9F8437C
:108BE0001F4690468946064600F03EF8044600259A
:108BF00039463046FFF786FF30688069400719D450
:108C00003046FCF7E4FC30B1C4B10021204600F04E
:108C1000E5FF90B112E024B10521204600F0DEFF0F
:108C200001253046FCF7D3FC40B91DB114B12046F4
:108C300001F04EF80220BDE8F883012502F014F897
:108C40006B46424649463046FCF74FFB064602F06B
:108C50002BF836B11DB114B1204601F039F8304679
:108C6000E9E70020E7E70000044A01680448914270
:108C700001D180687047C068704700000064004000
:108C80001000002010B5FFF7EFFF002803D0BDE86B
:108C9000104001F01DB810BD10B5054C206800282B
:108CA00005D101210022084600F0C6FF206010BD5A
:108CB0002800002070B50C4606000DD064B1104DA0
:108CC000286848B1802C00D980244FF47A7100F0D4
:108CD00085FF18B1032070BD012070BD22463146CA
:108CE0000848FBF7FEFA0749224601F18000FEF72B
:108CF000E4FE040002D0286800F0EAFF204670BDC0
:108D000028000020D0020020FEE7010901EB8101CC
:108D100000F00F0000EB4100C0B27047002102E0FC
:108D20000A38C0B2491C0A28FAD2090740EA116081
:108D3000704700002DE9F041044600680025C16835
:108D4000490618D4C16841F08001C160FDF7BEF842
:108D500006464FF47A78042707E000BFFDF7B6F81F
:108D6000801B404501D9677701252068C06840060F
:108D700001D4002DF2D02846BDE8F08170B504463C
:108D800000680025C16821F08001C160206880680A
:108D9000800606D42046FEF79DF910B104206077C6
:108DA0000125284670BD000010B50C4600280DD0E6
:108DB000002C0BD0014600220548FEF74BF8214657
:108DC000BDE8104000220248FEF722B810BD0000A6
:108DD0000002002000B587B014216846FBF79AFA1C
:108DE0000020059005A96846FFF7DEFF9DF81500F5
:108DF000114940F26D1231F810009DF8161001442F
:108E00009DF8170010FB02F0401E084440F2A32119
:108E100048439DF8021001EBC0129DF800004FF48A
:108E2000616110FB01F09DF8011007B0C1EB011169
:108E300000EB8100104400BD30C00008F8B51546B5
:108E40000E460B46009204460122022100F02CF847
:108E5000A0B9134813490068B0FBF1F04FF47A71E0
:108E6000484300906068B0F5827F0DD13346002200
:108E700080212046009500F017F870B1606D40F039
:108E8000200060650320F8BD009830B1401E0090BE
:108E900020688068C0430006F6D50020F8BD0000B9
:108EA0003800002000366E012DE9F8431E46914639
:108EB00088460446089DFDF709F8401B351AFDF762
:108EC00005F8074626480068C0F3CB3068430AE03F
:108ED000701C09D0FCF7FAFFC01BA8420FD275B175
:108EE0000098B8B3401E00902068816838EA0100FD
:108EF00033D000214945EBD10020BDE8F88320683C
:108F0000416821F0E00141606068B0F5827F0BD1DB
:108F1000A068B0F5004F02D0B0F5806F04D1206892
:108F2000016821F040010160A06AB0F5005F09D13D
:108F30002068016821F4005101602068016841F453
:108F400000510160012084F85100002084F8500095
:108F50000320D2E7FFE70025C6E70121CAE70000AA
:108F6000380000202DE9F041104C94F8FE0100B1CA
:108F70000120FBF7E1F9C4E900010D48FBF75EFCB5
:108F800007460B487230FBF787FC0646074810304F
:108F9000FBF712FF054606486E38FBF749FFB91983
:108FA0002944084484F8FE01BDE8F0817055002092
:108FB000C6560020FFF7D6FF0A2000F0B5FDF9E7FE
:108FC000FEF7C4FF0A2000F0AFFDF9E7FBF79CFBBA
:108FD00000F0CEFD4FEA0004FBF7A4FB0A34204664
:108FE00000F0AFFDF8E70000A4B0142106A8FBF7DD
:108FF00091F90020FF24239023A906A8FFF7D4FEAF
:109000009DF81A00A04222D00446FFF7E3FE9DF827
:109010001A10CDE904109DF819309DF818209DF81C
:109020008E109DF88D00CDE90001CDE902239DF859
:109030008F3009A260210BA803F5FA6300F062FAF1
:109040000BA8FBF772F981B20BA8FFF733FE0A20D9
:1090500000F06AFDD0E70000525443202530346C04
:10906000752D253032752D2530327520253032751D
:109070003A253032753A2530327520757074696D35
:10908000653D256C75730D0A0000000010B54FF0AA
:10909000E020006902F084FD012803D0BDE8104003
:1090A00002F0FCB810BD000030B593B03021684626
:1090B000FBF730F914210CA8FBF72CF91E4800250A
:1090C000016841F080510160006800F0805011900B
:1090D0001A48016841F4804101600068022400F4EC
:1090E00080401190052000904FF4803001900120C5
:1090F00002908005CDE9064008AA0420A82182E854
:1091000013000B906846FDF7C3FC08B172B6FEE78A
:109110000CA90F2081E831004FF4A0500F904FF4BC
:109120008050109005210CA8FDF7A8FB002801D065
:1091300072B6FEE713B030BD403802400070004008
:109140000448016841F47001016002490248803915
:109150000860704788ED00E0004000080148FEF715
:10916000F4B9000098030020F0B50268274B284DA1
:10917000284E294F294C4FF0804C984209D0604529
:1091800007D0A84205D0B04203D0B84201D0A042D7
:1091900004D122F0700E4A6842EA0E0298421BD0B7
:1091A000604519D0A84217D0B04215D0B84213D0AC
:1091B000A04211D01A4DA8420ED01A4DA8420BD091
:1091C000194DA84208D0194DA84205D0184DA84203
:1091D00002D0184DA84203D122F44075CA682A4330
:1091E0004D6922F080022A438D68C5620D68856250
:1091F000984201D0A04201D109690163016841F0A0
:1092000004010160012141610260F0BD00000140E4
:109210000004004000080040000C00400004014031
:109220000040014000440140004801400018004057
:10923000001C00400020004010B5806B0021C1855B
:10924000FEF72AFA10BD01680C3151E8002F22F414
:10925000907241E80023002BF5D10168143151E8E8
:10926000002F22F0010241E80023002BF5D1016B11
:10927000012909D101680C3151E8002F22F01002B8
:1092800041E80023002BF5D1202180F84210002175
:109290000163704708B590F84210222901D00220DE
:1092A00008BD82684FF480539A4201D1016921B10F
:1092B000816A9A421BD04AB10AE00268816A526808
:1092C000C2F308020A80816A891C08E0026972B14F
:1092D0000268526802F07F020A70816A491C81624A
:1092E000C18D491E0904090CC18503D01BE0026829
:1092F0005268F1E70168CA6822F02002CA6001687A
:10930000CA6822F48072CA6001684A6922F00102C8
:109310004A61202180F8421000214163026B012A3A
:1093200003D0FEF779FB002008BD016301680C3112
:1093300051E8002F22F0100241E80023002BF5D164
:1093400001680A68D20602D50A6849680091818DD1
:10935000FEF7A1F9E7E7000070B50446006801696F
:10936000E26821F44051114301612169A068E2697A
:1093700008436169114308432168CA6849F20C63D4
:109380009A430243CA6020684169A26921F440718E
:109390001143416131492068884202D030498842F6
:1093A00002D1FDF735FB01E0FDF722FBE269002366
:1093B000192164253226B2F5004F626828D0A0FB3F
:1093C0000101930F9200FAF75BFF0146B0FBF5F045
:1093D0006FF01802504301EB800006EB0010B0FB69
:1093E000F5F000F0F002B1FBF5F002EB0012B1FB7A
:1093F000F5F06FF01803584301EB800006EB001006
:10940000B0FBF5F000F00F0021681044886070BDDB
:10941000A0FB010192185B41FAF732FF0146B0FB55
:10942000F5F00201B1FBF5F06FF01803584301EBC2
:10943000800006EBC000B0FBF5F000F0F80002EB96
:109440004002B1FBF5F0584301EB800006EBC00091
:10945000B0FBF5F000F00700D6E700000010014077
:10946000001401402DE9F843984617460D4604467E
:10947000089E24E0701C22D0FCF728FDA0EB080019
:10948000B0421AD8CEB12068C168490717D5802DDF
:1094900015D0402D13D00168C94309070FD40168C6
:1094A0000025406800902046FFF7CDFE082060644C
:1094B00084F840500120BDE8F8830320FBE72068D2
:1094C000006835EA000004D00020B842D2D0002065
:1094D000F1E70120F9E700000148FEF7EDB80000D0
:1094E0005003002010B50446FAF71FFF214682B250
:1094F000BDE8104032230148FEF78FBA5003002028
:10950000FEE700000FB41CB50246002007AC00299E
:109510000BD0491ECDE90021054B6A46214606982D
:1095200000F028F8009A002111701CBC5DF814FBB3
:10953000B79800080907090E002804DB00F1E020B5
:1095400080F80014704700F00F0000F1E02080F870
:10955000141D704702E008C8121F08C1002AFAD182
:1095600070477047002001E001C1121F002AFBD1A3
:10957000704700002DE9FF4F8BB088460546002656
:1095800006E025280BD0DDE90D1290476D1C761CF6
:1095900028780028F5D10FB03046BDE8F08F0024C0
:1095A000A146A2460122AE4900E0044315F8013F5E
:1095B000203B02FA03F00842F7D128782A2810D07D
:1095C0006FF02F022878A0F13001092915D809EB96
:1095D000890102EB410144F0020400EB01096D1C1A
:1095E000F0E758F8041B5FEA010903D544F400547E
:1095F000C9F1000944F002046D1C28782E2817D107
:1096000015F8010F44F004042A280ED06FF02F0241
:109610002878A0F1300109290AD80AEB8A0102EB67
:10962000410100EB010A6D1CF2E758F804AB6D1C18
:1096300028786C280FD006DC4C2817D068280DD06D
:109640006A2814D104E0742810D07A280FD10DE0D4
:1096500044F400140AE044F4801401E044F440149B
:109660006978814202D104F580146D1C6D1C287844
:10967000692865D006DC00288DD0632827D06428AF
:1096800006D15DE06E2808D073282AD0752877D0DF
:10969000DDE90D129047761CE0E0C4F30250022889
:1096A00009D003280DD0D8F8001004280DD00E6082
:1096B00008F10408D2E0D8F80010F217C1E90062FE
:1096C000F6E7D8F800100E80F2E70E70F0E718F811
:1096D000041B8DF8001000208DF80100EB460120DE
:1096E00003E058F804BB4FF0FF3061074FF000076C
:1096F00001D40AE07F1C57450DDA8742FADB1BF8DC
:1097000007100029F6D106E07F1C8742FCDB1BF81E
:1097100007100029F8D1DDE90D23A9EB07008146E8
:10972000214600F0B1F83044C61904E0DDE90D121D
:109730001BF8010B90477F1EF8D22146484688E06F
:1097400058F8040BC4F302514FF00A0B032900D15F
:1097500000B2042900D140B2002802DA40422D2193
:1097600002E0210505D52B218DF82410012104E00C
:1097700006E0E10710D02021F6E708AF089113E0DA
:1097800058F8040BC4F302514FF00A0B032900D11F
:1097900080B2042900D1C0B20021EEE75946FAF7A1
:1097A000F1FD303107F8011D0028F7D1ADEB0700BE
:1097B00000F1200B600702D524F4803401E04FF063
:1097C000010ADA4502DDAAEB0B0000E00020824628
:1097D00000EB0B0108980144A9EB01000A90E0039B
:1097E00006D4DDE90D2321460A9800F04DF8064421
:1097F0004FF0000908E009A911F80900DDE90D1290
:10980000904709F10109761C08998945F3DBE003CB
:109810000CD5DDE90D2321460A9800F035F8064401
:1098200004E0DDE90D1230209047761CBAF100010A
:10983000AAF1010AF5DC05E0DDE90D1217F8010BCC
:109840009047761CBBF10001ABF1010BF4DC0A98E8
:109850002146DDE90D2300F005F806446D1C97E66E
:10986000092801002DE9F041044600251E4617464F
:10987000880404D405E039462020B0476D1C641EDE
:10988000F9D52846BDE8F0812DE9F04104460025D0
:109890001E469046C80301D5302700E020278804E3
:1098A00004D505E041463846B0476D1C641EF9D525
:1098B0002846BDE8F0814A68002A06D00A68531C91
:1098C0000B6010704868401E4860704710B500205B
:1098D00000F03EF80B480C4A0168914202D190F822
:1098E000510008B9FFF79CF80848016841F0807101
:1098F0000160074800214160016841F001010160F9
:1099000010BD000078020020003C0040FCED00E0AB
:10991000001000E0FCF7DABA08B501788DF8001005
:1099200040788DF801006946022000F037FB010AFB
:109930008DF802108DF803000A2000F011F8694636
:10994000042001F0D7F80A2000F002F808BD00005A
:10995000012211460148FCF7B3BA0000000C024096
:10996000002201210148FCF7ABBA0000000C0240C4
:1099700000280BD00649074A0968B1FBF2F1064AF4
:109980004143506853681B1A8B42FBD37047000059
:109990003800002040420F00001000E0401E00EEA2
:1099A000100A9FED041AF8EE400AB3EE090A00EE21
:1099B000810A7047CDCCCC3D10B5002821D0114B89
:1099C0000022001F196803E0814203D80A46496853
:1099D0000029F9D152B11368841A9C4204D100685D
:1099E00018441060104602E0506000E0186039B181
:1099F00002680B1A934203D10B681A44026049684B
:109A0000416010BDDC000020FCF7CCFD62B6FFF722
:109A10004BFBFEF729FEFEF77FFDFEF7AFFDFEF7DD
:109A2000D1FDFEF7D5FEFEF7F3FEFEF7D7FFFEF7FA
:109A3000F7FFFFF719F8144C002240212046FCF7ED
:109A40003FFA012280212046FCF73AFA0F4C01220E
:109A500011462046FCF734FA012202212046FCF789
:109A60002FFAFFF733FFFBF7E1FAFBF708FB08A03B
:109A7000FFF738FDFAF7BEFD00F082F8FEF7C6FDED
:109A800000F090F8FEE7000000000240000C0240E9
:109A90004348555F424D5320463430373A20424DBB
:109AA000532B52544F533B2043414E322030783792
:109AB0003030202D3E20424C0D0A0000F0B50B3016
:109AC000154D20F007010024144A0FE003688B4273
:109AD0000BD38B4205D95E1A43184768C3E9006768
