:020000040800F2
:10000000100600209D0100088122000871200008D0
:100010007D220008D90200083924000800000000F1
:10002000000000000000000000000000892200081D
:100030003D03000800000000852200088D22000812
:10004000B7010008B7010008B7010008B7010008B0
:10005000B7010008B7010008B7010008B7010008A0
:10006000B7010008B7010008B7010008B701000890
:10007000B7010008B7010008B7010008B701000880
:10008000B7010008B7010008B70100080103000824
:10009000DD020008E9020008F5020008B7010008C7
:1000A000B7010008B7010008B7010008B701000850
:1000B000B7010008B7010008B7010008B701000840
:1000C000B7010008B7010008B7010008B701000830
:1000D000B7010008B7010008B7010008B701000820
:1000E000B7010008B7010008B7010008B701000810
:1000F000B7010008B7010008B7010008B701000800
:10010000B7010008B7010008B7010008B7010008EF
:10011000B7010008B7010008B7010008B7010008DF
:10012000B7010008B7010008B7010008B7010008CF
:10013000B7010008B7010008B70100083103000843
:100140000D0300081903000825030008B701000883
:10015000B7010008B7010008B7010008B70100089F
:10016000B7010008B7010008B7010008B70100088F
:10017000B7010008B7010008B7010008000000003F
:10018000B7010008B7010008DFF80CD000F08CF8C8
:100190000048004725350008100600200648804723
:1001A00006480047FEE7FEE7FEE7FEE7FEE7FEE75C
:1001B000FEE7FEE7FEE7FEE73D23000889010008B1
:1001C0002DE9F05F0546002092469B46884606468C
:1001D000814640241BE0284641464746224600F01F
:1001E00053F853465A46C01A914110D31146184647
:1001F000224600F03AF82D1A67EB01084F462246D6
:100200000120002100F031F817EB00094E41201EBB
:10021000A4F10104DFDC484631462A464346BDE8E6
:10022000F09F40EA01039B0703D009E008C9121FB1
:1002300008C0042AFAD203E011F8013B00F8013BA0
:10024000521EF9D27047D2B201E000F8012B491ECC
:10025000FBD270470022F6E710B513460A46044663
:100260001946FFF7F0FF204610BD202A04DB203A94
:1002700000FA02F1002070479140C2F1200320FAF9
:1002800003F3194390407047202A04DB203A21FAF7
:1002900002F00021704721FA02F3D040C2F120029F
:1002A00091400843194670471CB509480090094819
:1002B00001900546009C06E0E06840F0010394E8E8
:1002C000070098471034AC42F6D3FFF761FF0000F7
:1002D000A4350008C4350008FEE7000040F25000D5
:1002E000C2F2000000F072BA40F25000C2F2000008
:1002F00000F06CBA40F25000C2F2000000F066BAA2
:1003000040F25000C2F2000000F060BA40F2780003
:10031000C2F2000000F05ABA40F27800C2F20000C7
:1003200000F054BA40F27800C2F2000000F04EBA79
:1003300040F27800C2F2000000F048BA70470000B6
:1003400072B600BFFEE70000F0B581B040F21407BE
:10035000044643F60C46C2F200070020C4F202062F
:10036000F86100F06DFF3168C9031BD43068C00725
:100370001CBF01203060306810F0F20F30D03068C0
:10038000C00631D43068800637D4306840063DD48A
:100390003068000643D43068800749D4012001B09A
:1003A000F0BD00BFC4B10546601C10D13068C00369
:1003B000DCD53068C00344BF30685FEAC030D5D5B3
:1003C0003068C003F2D4D1E73068C003CED500F066
:1003D00037FF401BA042F7D9032001B0F0BD00BF9A
:1003E000002001B0F0BD00BFF86940F01000F861D6
:1003F0001020306030688006C7D5F86940F00800EA
:10040000F8612020306030684006C1D5F86940F0BE
:100410000400F8614020306030680006BBD5F86900
:1004200040F00200F8618020306030688007B5D568
:10043000F86940F02000F86102203060012001B02E
:10044000F0BD000090F82020013A012A1CD8CA070C
:1004500004D00268936843F0800393608A0704D550
:100460000268936843F40043936049075CBF00202F
:10047000704700684FF4000200F1080100200B688B
:100480001A430A60704700BF00F1240101204FF4B5
:1004900080220B681A430A607047000090F8202001
:1004A000013A012A08D8006800F1140200201368FC
:1004B00019431160704700BF00F1240201204FF47E
:1004C00080211368194311607047000010B590F83F
:1004D00020E0D0F800C0AEF1010EBEF1010FDCF853
:1004E00008E011D81EF0E05F18D0CEF301640120BF
:1004F000A04018608B68DBB1D1F804E0C86840EA1E
:10050000CE0040EA030E17E000F1240301204FF46F
:1005100080211A681143196010BD00BF00F1240347
:1005200001204FF400111A681143196010BD00BF7B
:100530000868CB6843EA405E0CF5C07000EB04131A
:10054000240140F804E00C69184640F8044F097D86
:10055000012903D1016841F48071016050680121D3
:10056000D8601068986000201A681143196010BDA7
:1005700090F82020013A012A30D8B0B546F2006048
:10058000C4F20000026842F001020260026822F434
:100590007C520260D1F814E0CC694A6A0368012CED
:1005A00043EA022202600EF01F024FF0010303FA39
:1005B00002F2C3696FEA020C23EA0203C36113D09B
:1005C0002CBBC36803EA0C03C360CB688C8844EA85
:1005D000034300EBCE0423640B4611E0416A41F46F
:1005E0008021416201207047C3681343C3600B68D8
:1005F0008C8844EA034300EBCE04236401F10C032E
:100600008C681B8843EA044300EBCE0463644368B0
:100610008D6943EA0204D1F810E0096A002D08BF91
:1006200003EA0C0444604369BEF1000F43EA02048C
:1006300008BF03EA0C040129446102D1C1691143D6
:10064000C161016821F0010101600020B0BD00001E
:100650007047000090F82020013A012A84BF002052
:10066000704700681022002908BF0C22805800F053
:1006700003007047B0B590F82040013C012C7DD8B4
:10068000D0F800C000290CBFDCF80C40DCF81040AA
:10069000A4077DD00CF5D8754FEA011C55F80C4025
:1006A00014F00404946055F80CE005EB011C19BF2C
:1006B0004FEADE0555604FEA5E551560DCF80050E4
:1006C000E64605F00205D5605EF8044F24075ABFE0
:1006D000DEF8004004F00F0408241461DEF8004046
:1006E0000029C4F307249461DEF800504FEA154551
:1006F0005561DCF808201A70026802EB0112D2F88A
:10070000B8214FEA12225A70026802EB0112D2F8A5
:10071000B8214FEA12429A70026802EB0112D2F835
:10072000B8214FEA1262DA70026802EB0112D2F8C5
:10073000BC211A71026802EB0112D2F8BC214FEA07
:1007400012225A71026802EB0112D2F8BC214FEA60
:1007500012429A71026802EB0112D2F8BC214FEAF0
:100760001262DA7100680CBF00F10C0100F1100197
:10077000002020220B681A430A60B0BD00F124015A
:1007800001204FF480220B681A430A60B0BD00BFFD
:1007900000F1240101204FF400120B681A430A6093
:1007A000B0BD000090F820100139012984BF00205D
:1007B00070470068816882688068C1F38061C2F315
:1007C000C0621144C0F30070084470472DE9F04F37
:1007D00081B0044600684669D0F804908768D0F874
:1007E0000CB0D0F810A0D0F81880F10704D1002583
:1007F00030071DD424E000BFF90710D00121BA074B
:10080000816009D4780700F1AF80380700F1B68025
:10081000204600F0D1FA02E0204600F0CFFA002591
:10082000F80500F18780F80300F1B180300707D5A3
:100830001BF0100004D0206845F400751021C16041
:10084000700708D51BF0080005D020680821C1609A
:10085000204600F041FAB00706D52068C06880073E
:1008600002D0204600F03AFA700607D51AF01000C0
:1008700004D0206845F4806510210161B00608D5D8
:100880001AF0080005D0206808210161204600F018
:100890002FFAF00606D520680069800702D02046AE
:1008A00000F028FAB00308D519F0100005D0206830
:1008B00010214160204600F01FFAF00308D519F01E
:1008C000080005D0206808214160204600F080FA29
:1008D000300440F19B805FEA497040F1948006F457
:1008E000807008EA102028435FEA8871014648BFFB
:1008F00041F00201B20558BF01465FEA48700D465B
:1009000048BF45F00405700558BF0D46300540F15D
:100910007A8018F0700000F0768010380009052801
:100920006CD8DFE800F003655D61596945F00805A2
:1009300064E000BF20684FF48071BA0581600BD479
:10094000780515D438051DD4204600F039FAF8038F
:100950007FF56CAF1BE000BF204600F033FAF803D0
:100960007FF564AF13E000BF4FF4006558E700BFA8
:1009700005F50055F8037FF559AF08E04FF48055B1
:100980004EE700BF05F58045F8037FF54FAF2068BF
:100990004FF48031BA0381600AD4780310D438034D
:1009A00014D4204600F010FA30073FF541AF47E776
:1009B000204600F00BFA30073FF53AAF40E700BFA2
:1009C00005F5004530073FF533AF39E705F58035CC
:1009D00030073FF52DAF33E745F080050EE000BF4F
:1009E00045F020050AE000BF45F0400506E000BFE5
:1009F00045F0100502E000BF45F48075206881696C
:100A000021F07001816120680421416055B1606A64
:100A100040EA05012046616201B0BDE8F04FFFF7F2
:100A200017BE00BF01B0BDE8F08F0000002804BF72
:100A300001207047B0B5044690F8200010B9204658
:100A400000F07EF82068016841F00101016000F0CB
:100A5000F7FB054620684168C90705D100F0F0FBA7
:100A6000401B0B28F6D310E0016821F00201016061
:100A700000F0E6FB054600BF2068416889070DD5F8
:100A800000F0DEFB401B0B28F6D3606A052140F422
:100A900000306062012084F82010B0BD217E026821
:100AA000012922F0800208BF80320260617E026864
:100AB000012922F0400208BF40320260A17E026894
:100AC000012922F0200208BF20320260E17E026884
:100AD000012922F0100218BF10320260217F026843
:100AE000012922F0080208BF08320260617F026813
:100AF000012922F0040208BF04320260D4E901C2D5
:100B0000D4E9033561691A432A431143ACF1010268
:100B10001143C16100200121606284F82010B0BD42
:100B200090F82020013A012A84BF00207047006815
:100B3000806800EA8160B0EB816018BF01207047D7
:100B400010B586B0006846F60002C4F2000200212B
:100B50009042CDE90411CDE90211019158D046F23D
:100B60000041C4F20001884240F0B48040F24C01E0
:100B7000C2F200010A6843F64000C4F20200531CAE
:100B80000B6052B900210091016841F000710160D1
:100B9000016801F00071009100990021009150F866
:100BA000102C42F0010240F8102C50F8100C00F00C
:100BB0000100009000984FF4C05001900220CDE950
:100BC000020103200490092005900020C4F20200D5
:100BD00001A900F05FFA13200221002200F0B2FB0D
:100BE000132000F09DFB14200221002200F0AAFB3C
:100BF000142000F095FB15200221002200F0A2FB3A
:100C0000152000F08DFB16200221002216245CE046
:100C100043F64000C4F202000091016841F0806197
:100C20000160016801F080610091009940F24C017F
:100C3000C2F200010A68531C0B6052B900210091F6
:100C4000016841F000710160016801F000710091DC
:100C500000990021009150F8102C42F0020240F857
:100C6000102C50F8100C00F00200009000984FF487
:100C7000405001900220CDE9020103200490092098
:100C800005900020C4F2020000F5806001A900F088
:100C900001FA3F200121002200F054FB3F2000F028
:100CA0003FFB40200121002200F04CFB402000F0DF
:100CB00037FB41200121002200F044FB412000F0DD
:100CC0002FFB422001210022422400F03BFB204662
:100CD00000F026FB06B010BD70470000006846F625
:100CE0000001C4F20001884218BF704702F0CCBB7B
:100CF000704700007047000070470000B0B5044620
:100D000090F8200001281DD1022084F820002068DE
:100D1000016821F00101016000F092FA054600BF70
:100D200020684068C00713D000F08AFA401B0B28E7
:100D3000F6D3606A40F400306062052084F8200039
:100D40000120B0BD606A40F4002060620120B0BDA7
:100D500000206062B0BD0000B0B5044690F82000ED
:100D6000022819D12068016841F00101016000F0FA
:100D700067FA054620684168C90713D100F060FA98
:100D8000401B0B28F6D3606A40F4003060620520F7
:100D900084F820000120B0BD606A40F480106062D9
:100DA0000120B0BD016821F002010160012084F83A
:100DB00020000020B0BD0000704700007047000018
:100DC0007047000070470000704700007047000047
:100DD00070470000B0B5044600F032FA054640F214
:100DE0000000C2F200000078611C18BF044400BF7C
:100DF00000F026FA401BA042FAD3B0BD2DE9F04323
:100E000081B040F21408C2F2000898F81820012AB4
:100E100004D1022001B0BDE8F08300BF05460120E7
:100E200088F818004CF250308946FFF78DFA28B147
:100E3000002188F8181001B0BDE8F0834FF0FF30B2
:100E4000C9F80000286843F610470128C4F20207D9
:100E50001CD128693968000221F440713960396871
:100E600080B241F0040139603968084340F48030B1
:100E700038604CF25030FFF767FA396821F004010E
:100E8000396057F8101C89053BD452E0D5E902605F
:100E90003044864230D2F000841C00BF28694FF4F1
:100EA0004072C1B2032939684FEA002021F4407131
:100EB0003960396838BF82B241EA02003860386868
:100EC00020F078003860386820433860386840F493
:100ED000803038604CF25030FFF736FA396800281D
:100EE00021F07A01396047D1D5E902010136084481
:100EF000864204F10804D1D3002057F8101C89055C
:100F000017D557F8101C21F4007147F8101C57F83A
:100F1000101C41F4006147F8101C57F8101C21F414
:100F2000006147F8101C57F8101C41F4007147F895
:100F3000101C57F8101C49057FF57AAF57F8101CA4
:100F400021F4806147F8101C57F8101C41F48051BF
:100F500047F8101C57F8101C21F4805147F8101C5A
:100F600057F8101C41F4806147F8101C002188F8E4
:100F7000181001B0BDE8F083C9F8006057F8101CE4
:100F80008905BED4D5E700002DE9F04140F21404F4
:100F9000C2F20004277E012F04BF0220BDE8F081C9
:100FA0000546012020764CF2503098460F461646F2
:100FB000FFF7CAF920B100212176BDE8F08100BF1A
:100FC0002A46022D43F61045C4F202051ED0012A1E
:100FD000314638460CD03ABB2A6822F440722A6067
:100FE0002A682A602A6842F001022A6001702CE017
:100FF0002A6822F440722A602A6842F480722A60C9
:101000002A6842F001022A6001801EE0286820F46C
:1010100040702860286840F400702860286840F01C
:10102000010028603E6010E02A6822F440722A60C5
:101030002A6842F440722A602A6842F001022A605B
:101040000160BFF36F8FC0F804804CF25030FFF79F
:101050007BF9296821F00101296000212176BDE892
:10106000F081000043F60440C4F20200C168B1F10F
:10107000FF3FC4BF0020704740F22311C4F2675104
:10108000016048F6AB11CCF6EF510160C068C00FAB
:10109000704700002DE9F04F83B000F1200200F10D
:1010A0003E4741F60045009207F1FF77C4F2020582
:1010B00008224FEAB726A84208BF072200254FF0B2
:1010C00000084FF00009072E38BF4FEAB7220192FF
:1010D0000AE000BF09F1010908F10208B9F1100F97
:1010E00005F1040500F0A2800F68012202FA09FE52
:1010F00017EA0E0AEED0D1F804C003220CF0030761
:101100007E1E02FA08F4012E6FEA040B12D88468DE
:10111000CE6804EA0B0406FA08F634438460446897
:1011200024EA0E06CCF3001404FA09F426434660C0
:1011300004E000BF032F01D103271EE0C6688C68BE
:1011400006EA0B0604FA08F42643022FC66014D1FF
:101150006FF00302009E02EA590756F807C005F037
:101160001C040F220B69A2402CEA0202A3401A437E
:10117000F251D1F804C00CF00307026807FA08F333
:1011800002EA0B021A431CF4403F0260A2D0002284
:1011900043F644030292C4F202031A6843F6004481
:1011A00042F480421A601A68C4F2010402F48042D8
:1011B0000292029A29F003024FF6084C2244CFF61D
:1011C000FF7C52F80C3005F00C070F26BE40B343ED
:1011D000019E06FA07F73B4342F80C30A2684B68C1
:1011E00042EA0A0743F60C4CDE0258BF22EA0A071D
:1011F000A760C4F2010CDCF800209E0242EA0A0754
:1012000058BF22EA0A07CCF8007062689E0342EADF
:101210000A0758BF22EA0A0767602268DB0342EA2E
:101220000A0758BF22EA0A07276053E703B0BDE860
:10123000F08F0000002A08BF090481617047000098
:1012400040F20820C2F200000068704740F200003F
:1012500040F20821C2F20000C2F2000100780A68E0
:10126000104408607047000080B543F60040C4F2A7
:101270000200016841F400710160016841F480617D
:101280000160016841F480710160032000F086F87C
:101290000F2000F005F800F027F8002080BD0000C6
:1012A00070B540F20006C2F2000640F2100132783A
:1012B000C2F200014FF47A730968B3FBF2F20446FC
:1012C000B1FBF2F1084600F047FE0F2C4FF001058C
:1012D00008D838B94FF0FF3021460022002500F031
:1012E00031F87460284670BD82B0002043F640019A
:1012F0000190C4F202014A6842F480424A604A689E
:1013000002F480420192019A0090086840F08050F7
:101310000860086800F080500090009802B07047A4
:10132000002848BF704700F01F01012202FA01F1B6
:101330001C2202EAD0004EF20012CEF200028150CE
:101340007047000010B54EF60C5CCEF2000CDCF8D5
:101350000030C3F3022E8EF00704042C28BF0424AF
:10136000BEF103034FF0FF3E0EFA04F438BF002332
:10137000A14399400EFA03F39A43114300F00F0280
:1013800000F160430901043A03F564436244002814
:1013900048BF02F10C03197010BD00004EF60C514D
:1013A000CEF200010A684FF6FF031A4060F30A22EA
:1013B00042F0806040F0FD700860704781B02020EE
:1013C000C4F20E200121016047F20000C4F20000C7
:1013D00000680090009801B070470000F0B581B03F
:1013E0000446006810F0050F2DD06827C4F2472787
:1013F00043F670060020C4F202063860FFF720FFB3
:10140000054600BF56F8700C000105D5FFF718FF20
:10141000401B0228F6D93FE0D4E90101090741EA5F
:101420008010706101203860FFF70AFF054600BF99
:1014300056F8700C000105D4FFF702FF401B02288C
:10144000F6D929E0206880074FF0000058D543F610
:101450007006C4F20206009056F8300C47F20007FE
:1014600040F0805046F8300C56F8300CC4F20007BB
:1014700000F0805000900098386840F48070386028
:10148000FFF7DEFE054600BF3868C00508D4FFF749
:10149000D7FE401B0228F7D9032001B0F0BD00BFE2
:1014A000306810F4407013D0E16801F44071884254
:1014B0000ED0306840F64061C4F24721012220F48A
:1014C00040700A6000220A6030603068C00719D19D
:1014D000E06856F8681C4FF6FF4300F4407221F4B0
:1014E000F811C0F6FF730340B2F5407F08BF1943FF
:1014F00046F8681C31686FF31F30084330600020E5
:1015000001B0F0BDFFF79CFE054641F2883700BFF1
:1015100030688007DCD4FFF793FE401BB8424FF0E1
:101520000300F5D9ECE70000002804BF0120704754
:101530002DE9F04143F60808C4F202080446D8F841
:10154000F8030D4600F00700884207D288F8F853E8
:10155000D8F8F80300F00700A84277D12068810787
:1015600017D5410705D5D8F8001041F4E051C8F867
:101570000010010705D5D8F8001041F46041C8F803
:101580000010D8F80010A26821F0F0011143C8F84B
:101590000010C00740D1D8F8F80300F00700A842B7
:1015A00007D988F8F853D8F8F80300F00700A842E4
:1015B0004CD12068410707D5D8F80010E26821F423
:1015C000E0511143C8F80010000708D5D8F8000012
:1015D000216920F4604040EAC100C8F8000000F032
:1015E0007DF8D8F8001043F28A52C1F30311C0F617
:1015F0000002515C40F2100220FA01F140F20400B6
:10160000C2F200000068C2F200021160FFF748FE5B
:101610000020BDE8F08100BF6068811E022907D26A
:1016200058F8081C89015CBF0120BDE8F08111E079
:10163000012807D158F8081C89035CBF0120BDE8C8
:10164000F08107E058F8081C890703D40120BDE8A1
:10165000F08100BFD8F8001021F003010843C8F85A
:101660000000FFF7EDFD064641F28837D8F800008C
:10167000616800F00C00B0EB810F8CD0FFF7E0FD4B
:10168000801BB842F2D90320BDE8F08140F210007F
:1016900043F60801C2F20000C4F2020100680968C2
:1016A00043F29A52C1F38221C0F60002515CC84055
:1016B0007047000040F2100043F60801C2F200003B
:1016C000C4F202010068096843F29A52C1F3423140
:1016D000C0F60002515CC8407047000010B543F6E8
:1016E0000404C4F20204606800F00C0142F20040FD
:1016F0000829C0F2F40007D0042918BF10BD41F238
:101700000020C0F27A0010BD216801F03F0221687C
:1017100023684902C3F3881106D4A1FB000100230A
:10172000FEF74EFD07E000BF41F20020C0F27A0054
:101730004843B0FBF2F021680222C1F3014102EB01
:101740004101B0FBF1F010BD002804BF012070473B
:101750002DE9F04182B00446007843F60006C00748
:10176000C4F202060CD0B06800F00C00042840F06F
:1017700081803068800303D56068002800F06881AC
:10178000207880071BD5B06810F00C0F09D0B06826
:1017900000F00C00082840F087807068400200F1DB
:1017A00083803068800703D5E068012840F05081CD
:1017B0003068216920F0F80040EAC10030602078EC
:1017C000000713D4207840072AD4A569002D00F023
:1017D0003A81B06800F00C00082840F0A580012D87
:1017E00040F00E81012002B0BDE8F0816069002860
:1017F00000F082800020C4F247200121C0F8801E42
:10180000FFF71EFD054600BF706F8007DAD4FFF7B3
:1018100017FD401B0228F7D9032002B0BDE8F08174
:10182000306C5FEAC0080AD400200190306C40F0B0
:1018300080503064306C00F080500190019847F285
:101840000007C4F200073868C00547D4386840F480
:1018500080703860FFF7F4FC054600BF3868C005AB
:101860003CD4FFF7EDFC401B0228F7D9032002B05F
:10187000BDE8F081B06800F00C00082803D1706862
:1018800040023FF576AF61683068B1F5803F07D020
:10189000B1F5A02F40F09A8040F48020306030688D
:1018A00040F4803030609AE0E068002840F20000A8
:1018B000C4F247205CD001210160FFF7C1FC05465E
:1018C000306880073FF574AFFFF7BAFC401B022871
:1018D000F6D9032002B0BDE8F08100BFA168306FE7
:1018E000012905D0052955D140F004003067306F3B
:1018F00040F00100306756E00020C4F2472000218C
:10190000C0F8801EFFF79CFC054600BF706F800783
:101910007FF558AFFFF794FC401B0228F6D903204F
:1019200002B0BDE8F08100BF0027C4F247270020C5
:101930003866FFF785FC022D05460DD13068800121
:1019400040F18A80FFF77CFC401B02284FF0030027
:10195000F4D902B0BDE8F0813068800173D5FFF79B
:101960006FFC401B02284FF00300F5D9F1E700BFE0
:1019700000210160FFF764FC054600BF3068800766
:101980007FF51DAFFFF75CFC401B02284FF0030002
:10199000F4D9DEE720F001003067306F002920F035
:1019A000040030677AD0FFF74BFC054641F28837D8
:1019B000306F800700F18480FFF742FC401BB84283
:1019C000F6D9032002B0BDE8F08100BF20F48030DA
:1019D00030603068002920F4802030607AD0FFF732
:1019E0002FFC0546306880033FF5CAAEFFF728FCA0
:1019F000401B6428F6D9032002B0BDE8F08100BF87
:101A00007068E16900F480028A4221D1216A00F005
:101A10003F028A421CD147F6C071626A0140B1EBB5
:101A2000821F15D1A16A4FF6FF73C903994300F4D1
:101A30004032A1F580318A420AD1E16A00F070603B
:101A4000B0EB016F04D1002002B0BDE8F08100BF0F
:101A5000012002B0BDE8F08104F11C052FCD084340
:101A600040EA8210D9034FF6FF729143A1F580310D
:101A700040EA05600843706001203866FFF7E0FB2C
:101A8000044600BF30688001DDD4FFF7D9FB001B9E
:101A900002284FF00300F5D95BE700BFFFF7D0FB4A
:101AA000054641F2883700BF306F800708D5FFF741
:101AB000C7FB401BB8424FF00300F5D949E700BF10
:101AC000B8F1000F3FF581AE306C20F080503064EB
:101AD0007BE600BFFFF7B4FB054600BF306880031C
:101AE0007FF54EAEFFF7ACFB401B64284FF00300C0
:101AF000F4D92EE7006800EB8100006D704700000C
:101B0000006800EB8100026570470000002804BFF8
:101B100001207047B0B50446407F20B900202077EF
:101B2000204600F071F8022060772168C868C0067E
:101B30005ED4CA20486253204862C868400615D463
:101B4000C86840F08000C860FFF77AFB2168CA6867
:101B500052060BD4054600BFFFF772FB401BB0F5E1
:101B60007A7F49D82168C8684006F5D588684FF65D
:101B7000BF72CFF68F7210408860D4E9010CD4E9AF
:101B80000335626928438D681043284388600B61E0
:101B9000086940EA0C400861C86820F08000C8600D
:101BA000886880061AD447F65F70C0F20100C860EA
:101BB000FFF746FB054600BF2168C86880060DD4C4
:101BC000FFF73EFB401BB0F57A7FF5D90420607724
:101BD0002068FF2141620120B0BD00BF086C20F4E5
:101BE00080200864A0690A6C10430864FF204862E2
:101BF000012060770020B0BD042060772068C168B4
:101C0000FF2141620120B0BD80B584B0006842F67A
:101C10000002C4F20002002190420291019101D021
:101C200004B080BD022000904FF48070039068469D
:101C3000FFF7D4FB002818BFFEF782FB40F63C609C
:101C4000C4F247200121016004B080BD2DE9F041BC
:101C50000446007F01284FF0020008BFBDE8F08174
:101C60000123237760773AB14878CA788E780002EA
:101C700040EA024846E000BF48784FF0CD0CC2066B
:101C800042BF00F0EF000A304870CA788E78A2F1A7
:101C90000A07FDB205FB0CF5ED0A05EB8503A7EB82
:101CA0004303A0F10A0703EB0513FDB25FFA82FEBE
:101CB00005FB0CF5BEF1090F88BF03F11002ED0A18
:101CC0005FFA82FE05EB8502A7EB4202C3B202EB8C
:101CD0000512092B88BF02F11000A6F10A02D3B247
:101CE00003FB0CF3C0B2DB0A000203EB830740EAFC
:101CF0000E48F0B2A2EB470202EB0312092888BF9C
:101D000002F110060F782168CA2048625320486209
:101D1000C868400614D4C86840F08000C860FFF767
:101D20008FFA2168CA6852060AD40546FFF788FA76
:101D3000401BB0F57A7F35D82168C8684006F5D5D4
:101D4000F0B240EA08007A0320F0C0001043486077
:101D5000C86820F08000C8608868800618D447F6FC
:101D60005F70C0F20100C860FFF76AFA054600BF65
:101D70002168C86880060BD4FFF762FA401BB0F5F3
:101D80007A7FF5D9042060772168012003E000BF45
:101D9000012060770020FF224A6200212177BDE800
:101DA000F08100BF042060772168C8680120F2E755
:101DB0002DE9F0470446007F01284FF0020008BFDC
:101DC000BDE8F0870D46012121776077216888689A
:101DD00032B140060CD44FF0000885F803800AE0C9
:101DE000400611D44FF0000885F803800FE000BFD3
:101DF000E8784FEA80586A78287895F802A01202AD
:101E000042EA004945E000BFE8784FEA8058287868
:101E10004FF0CD0EA0F10A06F3B203FB0EF36A7881
:101E2000DB0A03EB8307A6EB4706A2F10A0706EBE2
:101E30000313FEB25FFA80FC06FB0EF695F802A0D3
:101E4000BCF1090F88BF03F11000F60A5FFA80FCAD
:101E500006EB8600D3B2A7EB400000EB0610092B7F
:101E600088BF00F11002D0B2AAF10A02D3B203FB7C
:101E70000EF3DB0A000203EB830740EA0C495FFA2A
:101E80008AF0A2EB470202EB0312092888BF02F195
:101E9000100ACA20486253204862C868400615D418
:101EA000C86840F08000C860FFF7CAF92168CA68B6
:101EB00052060BD4064600BFFFF7C2F9801BB0F5EF
:101EC0007A7F43D82168C8684006F5D55FFA8AF062
:101ED00040EA090047F67F7240EA0800C0F27F023C
:101EE00010400860886820F480208860D5E90302EB
:101EF0008B68104318438860C86820F08000C86071
:101F00008868800618D447F65F70C0F20100C86088
:101F1000FFF796F9054600BF2168C86880060BD414
:101F2000FFF78EF9401BB0F57A7FF5D90420607772
:101F30002168012003E000BF012060770020FF221C
:101F40004A6200212177BDE8F08700BF0420607756
:101F50002168C8680120F2E7411E0020B0EB116F34
:101F60001CBF012070474EF21002CEF200025160F9
:101F70004EF62351CEF20001F0230B700721906042
:101F8000116070474EF21000CEF20000016821F09F
:101F90000201016070470000002804BF0120704763
:101FA00010B5044690F8410028B9002084F840009C
:101FB000204600F021F8242084F841002068C16800
:101FC00021F40051C160204600F0C2F92068016987
:101FD00021F490410161416921F02A014161C16808
:101FE00041F40051C16000202021606484F8411058
:101FF00084F84210606310BD80B586B041F20001E4
:102000000068C4F20101002288420592CDE9032252
:102010000292019202D006B080BD00BF43F63000AC
:102020000092C4F20200436943F010034361436924
:1020300003F010030093009B0092036843F0010338
:102040000360006800F00100009000984FF4C06049
:1020500001900220CDE902020320049007200590A0
:1020600001F5704001A9FFF715F806B080BD00002A
:10207000FEE7000010B540F2500046F20041C2F207
:102080000000C4F20001042200234FF0012480E884
:102090000E0000F10C014FF4602C4FF4800E81E82B
:1020A000085084618383FEF7C1FC002808BF10BD7F
:1020B000BDE81040FEF744B910B540F2780046F68E
:1020C0000001C2F20000C4F20001042200234FF01C
:1020D000012480E80E0000F10C014FF4602C4FF455
:1020E000800E81E8085084618383FEF79FFC0028FE
:1020F00008BF10BDBDE81040FEF722B970B586B02C
:10210000002543F630000595CDE90355CDE901558D
:102110000095C4F202000168002441F0040101604E
:102120000168C4F2020401F00401009100990095D5
:102130000168002241F0800101600168C02601F0C1
:102140008001009100990095016841F00101016052
:10215000016801F00101009100990095016841F0CA
:10216000020101600068C02100F0020000900098A8
:102170002046FFF75FF80120CDE9020501A92046BE
:1021800001960495FEF786FF06B070BD10B586B0C7
:1021900040F2A00042F600020021C2F20000C4F2A8
:1021A00000027F23FF24CDE90211CDE90011C0E92F
:1021B0000021C0E90234C0E904118161FFF7A6FCE7
:1021C000002818BFFEF7BCF8FFF7F8F840F2A000AF
:1021D000C2F2000000210024FFF78CFC43F2F22140
:1021E00088422BD040F2A000C2F2000001A90122D7
:1021F000ADF804408DF80640CDE90444FFF7D8FD62
:10220000002818BFFEF79CF840F20110C0F2010050
:10221000009040F2A000C2F2000069460122FFF7E0
:1022200015FD002818BFFEF78BF840F2A000C2F29F
:102230000000002143F2F222FFF762FC06B010BD5D
:1022400080B540F2C00041F20001C2F20000C4F2C9
:10225000010100234FF00C0C4FF4E13280E80E0036
:10226000C0E90333C0E905C3C361FFF795FE002849
:1022700008BF80BDBDE88040FEF762B8FEE7000001
:10228000FEE700007047000070470000FEF7DEBF69
:1022900070B592B006AC20463021FDF7DBFF00257B
:1022A00043F640000595CDE90355CDE9015500956C
:1022B000C4F202000168022641F08051016000680A
:1022C00000F080500090009847F200000095C4F2A2
:1022D0000000016841F4804101600068A82100F419
:1022E000804000900098052006904FF480300790C1
:1022F000012008904FF480000D9004200E90119062
:1023000020460C96CDE90F16FFF71EFA10B172B6F3
:10231000FEE700BF0F20CDE901064FF4A050049066
:102320004FF48050059001A805210395FFF7FCF8B4
:1023300010B172B6FEE700BF12B070BD4EF6885005
:10234000CEF20000016841F47001016070470000A6
:10235000B0B50446006804F108030ECB05691943C3
:1023600025F440552A4302616269E3691143C2685A
:10237000194349F20C639A431143C1604169A26950
:1023800021F4407141F20043114340F48062C4F2F1
:1023900001039A42416103D1FFF78CF902E000BFCB
:1023A000FFF774F9E1694FF69C7563681922C0F66E
:1023B000FF75B1F5004FA0FB02011FD15A00DB0FE2
:1023C000FDF7FEFE48F21F51C5F2EB11A0FB012301
:1023D0005A0905F1805302FB0300322303EBC000CE
:1023E000A0FB01014FF4F87000EA111000EB02109D
:1023F000C1F34211084421688860B0BD9A009B0F68
:10240000FDF7DEFE48F21F51C5F2EB11A0FB0123E0
:102410005A0902FB0500322303EB0010A0FB010167
:10242000F02000EA511000EB0210C1F34311084400
:1024300021688860B0BD0000FEE7000044F20000A3
:10244000C0F60000026841686FF31302B2F1005F4A
:102450004FF0000011D101F07F42B2F1006F0CD1BA
:1024600011F0010208BF7047A1F10060A0F58041A2
:102470000020B1F5F82F38BF0120704770B544F245
:102480000004C0F60004216860686FF31301B1F125
:10249000005F4DD100F07F41B1F1006F48D110F0E5
:1024A000010108BF70BDA0F10060A0F58040800B65
:1024B0001E283DD825686668FFF764FD4EF21000BF
:1024C000CEF2000000210160416081604FF0FF31D9
:1024D00072B6C0F87011C0F87012C0F87411C0F86C
:1024E0007412C0F87811C0F87812C0F87C11C0F8E6
:1024F0007C12C0F88011C0F88012C0F88411C0F8B6
:102500008412C0F88811C0F88812C0F88C11C0F885
:102510008C124EF60850CEF200000460BFF34F8FCD
:10252000BFF36F8F85F308883046BDE870400047E1
:1025300070BD000010B582B040F238040020C2F235
:1025400000040190A07845F6A5210091A0B9FEF7FE
:1025500077FE6168401AB0F5FA6F0DD3FEF770FE92
:10256000E1786060481CE0708DF80210694640F226
:10257000FE70082200F07EF802B010BD10B58AB0DF
:1025800040F23800C2F200000024047044708470ED
:102590000E2001210590CDE9081040F27800CDE928
:1025A0000641C2F200006946CDE90044CDE902448B
:1025B0000494FDF7DDFF18B120460AB010BD00BF3E
:1025C00040F27800C2F20000FEF798FB20B1002430
:1025D00020460AB010BD00BF40F27800C2F20000F1
:1025E0000221FDF75BFFB0FA80F0440920460AB0F3
:1025F00010BD0000F0B581B0044600284FF0000087
:1026000018BF002902D101B0F0BD00BF002AFAD0E6
:1026100017460D4600F038FF40F23806C2F20006B9
:1026200070783178884203D1002001B0F0BD00BF3E
:10263000707840F208110001C2F2000108582060D1
:10264000707801EB001002793A70707801EB00109D
:10265000411D2846FDF7E5FD7078013000F00F00C0
:1026600070702068B0F5E06F4FF0010008BFB070E7
:1026700001B0F0BD70B594B0002400290994CDE9F3
:102680000744CDE905440394029400F08080054698
:1026900002A8082A28BF08221646FDF7C2FD40F20C
:1026A0007800C2F200006FF3DF2500680495CDE9E1
:1026B000064408968DF82440806940071ED540F2F4
:1026C0007804C2F200042046FEF746FB0E200121EA
:1026D0000F9011910022CDE912100AA92046109204
:1026E000CDE90A22CDE90C220E92FDF741FF2046EA
:1026F000FEF704FB20460221FDF7D0FEFEF7A0FD09
:1027000040F278050446C2F2000500BF2846FEF7F5
:1027100049F820B9FEF794FD001B1528F6D340F2C6
:102720007804C2F200042046FEF73CF890B340F271
:102730007800C2F2000004A902AA01ABFDF7C6FEB0
:1027400040BBFEF77DFD40F278060546C2F200066A
:1027500001993046FEF7E4F958B1FEF771FD401BD0
:102760001528F5D3019940F27800C2F20000FDF778
:1027700069FE40F278050199C2F200052846FEF78D
:10278000CFF938B928688069400703D4012420466E
:1027900014B070BD2068806940071ED540F27804EF
:1027A000C2F200042046FEF7D7FA0E2001210F9056
:1027B00011910022CDE912100AA920461092CDE90C
:1027C0000A22CDE90C220E92FDF7D2FE2046FEF73A
:1027D00095FA20460221FDF761FEFEF731FD40F239
:1027E00078050446C2F200052846FDF7DBFF20B954
:1027F000FEF726FD001B1528F6D340F27804C2F23E
:1028000000042046FDF7CEFF90B340F27800C2F2FC
:10281000000004A902AA01ABFDF758FE40BBFEF779
:102820000FFD40F278060546C2F2000601993046D7
:10283000FEF776F958B1FEF703FD401B1528F5D3D6
:10284000019940F27800C2F20000FDF7FBFD40F272
:1028500078050199C2F200052846FEF761F938B9FA
:1028600028688069400703D40124204614B070BD55
:102870002068806940071ED540F27804C2F2000447
:102880002046FEF769FA0E2001210F9011910022D7
:10289000CDE912100AA920461092CDE90A22CDE90D
:1028A0000C220E92FDF764FE2046FEF727FA204622
:1028B0000221FDF7F3FDFEF7C3FC40F27805044664
:1028C000C2F200052846FDF76DFF20B9FEF7B8FCFF
:1028D000001B1528F6D340F27800C2F20000FDF785
:1028E00061FF98B340F27800C2F2000004A902AA86
:1028F00001ABFDF7EBFD48BBFEF7A2FC40F278050B
:102900000446C2F2000500BF01992846FEF708F907
:1029100058B1FEF795FC001B1528F5D3019940F23C
:102920007800C2F20000FDF78DFD40F278040199B5
:10293000C2F200042046FEF7F3F838B92068806937
:10294000400703D40124204614B070BD0024204663
:1029500014B070BD40F27800C2F20000FEF7FCB97E
:1029600040F27800C2F20000FDF71CBF40F20802FE
:1029700044F2000340F24000C2F20002C0F600033D
:10298000C2F2000000215360FF230180C0E9011161
:1029900013708170FFF7F2BD2DE9F04F89B003ACE1
:1029A0004FF0000A05A80DF10B022146CDF814A046
:1029B0008DF80BA0FFF71EFE40F2400B0028C2F27C
:1029C000000B00F0B782A01C4FF001084FF47F49C4
:1029D00005AF0DF10B05019014E000BF0120FEF7DB
:1029E000F9F940F2017006A90822FFF743FE012021
:1029F000FEF7F0F9384621462A46FFF7FBFD00288E
:102A000000F098820598B0F5E06FF3D19DF80B00C7
:102A10000028EFD09DF80C108BF802804A1E072A80
:102A200000F2FE80DFE802F004A0425A1AB8E488FF
:102A300040F21410C4F6004007904FF001100690C9
:102A4000FEF7FEFB064600BFFFF78AFF0228C5D847
:102A5000FEF7F6FB801B3328F6D3BFE70528C0F04E
:102A6000F380DBF80400002800F0EE8000F074FB37
:102A7000002800F07381DBF80400DDF80D6000F041
:102A800065FAB04240F00A820520CDF81CA00690FD
:102A9000FEF7D6FB064600BFFFF762FF02289DD86F
:102AA000FEF7CEFB801B3328F6D397E7042800F20D
:102AB000DF8040F20320CDF81CA00690FEF7C0FB9B
:102AC000064600BFFFF74CFF02283FF687AFFEF730
:102AD000B7FB801B3328F5D380E700BFC11EC9B206
:102AE000052900F2DF809BF80010002900F0DA8051
:102AF0009BF801109DF80D9040F208080129C2F2E0
:102B0000000840F0638198F80010894540F05E812C
:102B10000420CDE9060A8DF81A90FEF791FB0646CF
:102B2000FFF71EFF022800F2E081FEF789FB801B01
:102B30003328F5D3D9E100BF042800F2C7804FF451
:102B40000270CDF81CA00690FEF77AFB064600BF87
:102B5000FFF706FF02283FF641AFFEF771FB801B2F
:102B60003328F5D33AE700BF042800F2C98040F2C9
:102B70000220CDF81CA00690FEF762FB064600BFBF
:102B8000FFF7EEFE02283FF629AFFEF759FB801B48
:102B90003328F5D322E700BF00F0DEFA06208BF8D9
:102BA00000A0CBF804A0CDF81CA00690FEF748FBCF
:102BB000064600BFFFF7D4FE022804D8FEF740FB0C
:102BC000801B3328F6D30120FEF704F940F2017090
:102BD00006A90822FFF74EFD0120FEF7FBF80220B0
:102BE000FEF7F8F8FFF7B6FEFFF748FC02E700BF74
:102BF00007208BF800A0CBF804A0CDF81CA006900D
:102C0000FEF71EFB064600BFFFF7AAFE02283FF6AE
:102C1000E5AEFEF715FB801B3328F5D3DEE600BFDB
:102C2000CDE9069A8DF81810FEF70AFB064600BF9C
:102C3000FFF796FE02283FF6D1AEFEF701FB801BA0
:102C40003328F5D3CAE600BF40F20520CDF81CA01A
:102C50000690FEF7F5FA0646FFF782FE02283FF6D9
:102C6000BDAEFEF7EDFA801B3328F5D3B6E600BF04
:102C7000DDF80D00B0F5F82FC0F0848040F203209D
:102C8000CDF81CA00690FEF7DBFA0646FFF768FEBB
:102C900002283FF6A3AEFEF7D3FA801B3328F5D304
:102CA0009CE600BF40F20450CDF81CA00690FEF751
:102CB000C7FA0646FFF754FE02283FF68FAEFEF72E
:102CC000BFFA801B3328F5D388E600BF9BF80000CD
:102CD000012840F0B5804FF4A160CDF81CA006900B
:102CE000FEF7AEFA064600BFFFF73AFE02283FF6AF
:102CF00075AEFEF7A5FA801B3328F5D36EE600BF4C
:102D0000DDF80D600120FEF765F8304600F0DAF9D5
:102D1000002800F0AF8040F2080044F20001C2F247
:102D20000000C0F6000141600120CBE9016A8BF888
:102D300000A0FEF74FF80220CDF81CA00690FEF789
:102D40007FFA0646FFF70CFE02283FF647AEFEF775
:102D500077FA801B3328F5D340E600BF40F20530F8
:102D6000CDF81CA00690FEF76BFA0646FFF7F8FDBB
:102D700002283FF633AEFEF763FA801B3328F5D303
:102D80002CE600BF44F20001C0F6000140F2080248
:102D90000144C2F20002CBF80800FF2010700320AB
:102DA0005160ABF80080CDF81CA00690FEF748FA01
:102DB000064600BFFFF7D4FD02283FF60FAEFEF730
:102DC0003FFA801B3328F5D308E600BF811ED8F8F0
:102DD0000400CEB20199324600F0CCF9002871D03F
:102DE000D8F80400DBF808103044C8F8040088194B
:102DF000CBF8080088F800904FF0010804208BF809
:102E00000180CDE9060A8DF81A90FEF719FA0646F8
:102E1000FFF7A6FD022804D8FEF712FA801B33281C
:102E2000F6D30120FDF7D6FF40F2017006A9082273
:102E3000FFF720FC0120FDF7CDFF4FF47F49D9E5D6
:102E4000DDF80D0000F0D8F900285FD00820CDF89B
:102E50001CA00690FEF7F4F9064600BFFFF780FDC0
:102E600002283FF6BBADFEF7EBF9801B3328F5D304
:102E7000B4E500BF40F20230CDF81CA00690FEF78A
:102E8000DFF90646FFF76CFD02283FF6A7ADFEF717
:102E9000D7F9801B3328F5D3A0E500BF40F20540E9
:102EA000CDF81CA00690FEF7CBF90646FFF758FDBB
:102EB00002283FF693ADFEF7C3F9801B3328F5D304
:102EC0008CE500BF4FF44170CDE9060A8DF81A90E9
:102ED000FEF7B6F9064600BFFFF742FD022804D808
:102EE000FEF7AEF9801B3328F6D30120FDF772FF01
:102EF00040F2017006A90822FFF7BCFB0120FDF794
:102F000069FF4FF47F494FF0010873E54FF4A1606A
:102F1000CDF81CA00690FEF793F90646FFF720FDBA
:102F200002283FF65BADFEF78BF9801B3328F5D303
:102F300054E500BFDBF8040020B99BF8000008B995
:102F4000FFF7F8FA09B0BDE8F08F0000002804BFD1
:102F5000002070472DE9F04F82B048F2203E44F245
:102F6000901842F2C80941F2640A48F6320B44F262
:102F700000014CF2194CCEF6B85EC7F2DC68C3F61D
:102F80006E39C1F6B75AC0F6DB6BC0F600010128F6
:102F9000C0F26D7C06D100264FF0FF35C00766D128
:102FA0008BE000BF20F00105009068424FF0FF3534
:102FB0006FF00107019000BFCA199378D2786B4077
:102FC0008EEA5305DC0708BF5D088EEA5504084603
:102FD00041465FEA83784FEA4376884658BF6C08DB
:102FE0000CEAE676190748BF86EA0B06D90648BF01
:102FF00086EA0A06990648BF86EA090686EA941117
:10300000AB0648BF81EA0801A30648BF81EA0E016A
:1030100051408EEA5102CB0708BF4A088C078EEA5E
:1030200052034FEA417458BF53080CEAE4740D0789
:1030300048BF84EA0B04CD0648BF84EA0A04890627
:1030400048BF84EA090484EA9315910648BF85EADB
:103050000805990648BF85EA0E05019902373944EB
:1030600002310146A8D10098BE1CC00725D0885D5A
:1030700068408EEA5006C50708BF460885074FEA34
:1030800040758EEA56070CEAE57458BF77080507C5
:1030900048BF84EA0B04C30648BF84EA0A048006DA
:1030A00048BF84EA090484EA9715B00648BF85EA58
:1030B0000805B80648BF85EA0E05E84302B0BDE83A
:1030C000F08F0000B0B586B06FF4F8220244002102
:1030D00012F5F82F029100913BD30124B0F5804FF7
:1030E0004FF0010520D9B0F5004F01D802251BE0B3
:1030F000B0F5404F02D8032516E000BFB0F5E03F21
:1031000002D8042510E000BF4CF20101C0F2010119
:1031100001F50032904201D2052505E001F580213C
:103120000725884238BF0625FDF79CFF43F60C4073
:10313000C4F20200F32101600020019002200590FA
:1031400001A86946CDE90345FDF758FEB0FA80F0C5
:103150004109084606B0B0BD0120704780B5FDF7B3
:1031600081FF43F60C41C4F20201F32201200A6000
:1031700080BD000070B5044644F20000C0F60000B7
:1031800084424FF000001FD3F2B1E9B100261319B9
:10319000C0F60806B34217D80E461546FDF762FF83
:1031A0006D42013E16F8012F002021460023FDF755
:1031B000EBFEB0FA80F100284FEA511018BF70BD45
:1031C000013504F10104EDD170BD00004BF6F07142
:1031D000C2F20101086841F2AD02CBF2070290424F
:1031E00004BF00220A604EF65371C4F6F871084419
:1031F000B0FA80F0400970472DE9F04186B044F202
:103200000751CCF22E21A0FB0112130C40F2A32196
:103210005943A0EBC1114BF2C530C9F2A210A1FB7A
:1032200000074FEAD7284FF4616708FB17170026FD
:10323000CDE902660196B9B248F689064E43710D92
:103240000D01A5EB5656A7EB860C042707EB12429F
:1032500097B242F293467743A2EB1746B6B276088E
:1032600006EB1747BF08A7EBC7073A4402F1010E68
:1032700040F2B27241F27B44642545F62946970735
:1032800007D00EE0B3F5B77726D33B460132970758
:1032900007D197B2BF0867437F0C07FB15273F0490
:1032A000F0D102FB06F7B8B2000940EA073080B25D
:1032B000A32809D9B3F5B67F18D9A3F26D1301324B
:1032C0009707E6D0EDE700BFB3F5B777DDD201246D
:1032D0001F2B0ED33AE000BF1E2B0AD9A3F11F0407
:1032E0001D2C53D20225234604E000BF00241F2BCF
:1032F0002CD20125A2F6340080B24FF69C74A04275
:103300004FF000041DD3581C8DF8051002F1300158
:103310008DF804808DF806C0CDE904448DF80310C3
:103320008DF801508DF802008DF800E0FEF746F8A8
:1033300040F2A000C2F2000001A90022FEF738FD11
:1033400050B1204606B0BDE8F08100BF1C341F3BE1
:10335000A34223D20225CDE740F2A000C2F2000032
:10336000694600220024FEF771FC0028E9D140F2F2
:10337000A000C2F20000002143F2F222FEF7C0FBDF
:103380000124204606B0BDE8F08100BFA3F13C0453
:103390001F2C09D203252346ACE700BF1B1B1F2BA4
:1033A00028D20325A6E700BFA3F15B041E2C25D37A
:1033B000A3F179041F2C29D3A3F198041E2C2DD33B
:1033C000A3F1B6041F2C31D3A3F1D5041F2C35D3A0
:1033D000A3F1F4041E2C39D3A3F589741F2C3DD31B
:1033E000A3F231100C251E2834BF0B25A3F24F1079
:1033F00048E000BFA3F11F041E2C03D2042523467E
:1034000078E700BFA3F13D041F2C03D20525234616
:1034100070E700BFA3F15C041E2C03D206252346EF
:1034200068E700BFA3F17A041F2C03D207252346C7
:1034300060E700BFA3F199041F2C03D2082523469F
:1034400058E700BFA3F1B8041E2C03D20925234678
:1034500050E700BFA3F1D6041F2C03D20A25234650
:1034600048E700BFA3F1F5041E2C03D20B25234629
:1034700040E700BFA3F213100D251F2834BF0C2511
:10348000A3F59970034635E72DE9F04389B040F282
:103490007800C2F200000021FDF7DCF800283DD0E2
:1034A00040F2780440F2380740F20818C2F20004F3
:1034B0000DF108096E46C2F20007C2F2000804E0EE
:1034C00020460021FDF7C6F840B3204600214A46B9
:1034D0003346FDF7CFF808BB04980028F0D1069AD0
:1034E000092A24BF08220692029839787B78013194
:1034F00001F00F059D42E3D03978090148F8010039
:103500003878314608EB00100271387808EB00106B
:103510000530FCF786FE3D70D2E700BF09B0BDE87C
:10352000F0830000FDF7A0FEFEF7B2FEFEF7E6FD19
:10353000FEF7A0FDFEF7C0FDFEF782FEFEF726FEB9
:10354000FFF70CFEFFF712FA60B1FFF73FFE28B954
:10355000FEF774FF002818BFFEF790FFFFF71CFA74
:10356000FCE700BF6420FDF735FCFBE702E008C87C
:10357000121F08C1002AFAD170477047002001E0ED
:1035800001C1121F002AFBD170470000000000009B
:103590000000010203040607080900000000010200
:1035A00003040000C83500080000002038000000B7
:1035B0006C3500080036000838000020D8050000EF
:1035C0007C35000800000000010000001000000031
:1035D000FF000000004000080024F400000000008C
:1035E00000000000000000000000000001000000DA
:1035F00000000000000000000000000000000000CB
:040000050800018965
:00000001FF
